{
  "contractName": "DShareStorage",
  "abi": [
    {
      "inputs": [],
      "stateMutability": "nonpayable",
      "type": "constructor"
    },
    {
      "inputs": [
        {
          "internalType": "address",
          "name": "owner",
          "type": "address"
        }
      ],
      "name": "OwnableInvalidOwner",
      "type": "error"
    },
    {
      "inputs": [
        {
          "internalType": "address",
          "name": "account",
          "type": "address"
        }
      ],
      "name": "OwnableUnauthorizedAccount",
      "type": "error"
    },
    {
      "anonymous": false,
      "inputs": [
        {
          "indexed": true,
          "internalType": "address",
          "name": "user",
          "type": "address"
        },
        {
          "indexed": false,
          "internalType": "uint256",
          "name": "amount",
          "type": "uint256"
        }
      ],
      "name": "Deposited",
      "type": "event"
    },
    {
      "anonymous": false,
      "inputs": [
        {
          "indexed": true,
          "internalType": "address",
          "name": "collector",
          "type": "address"
        },
        {
          "indexed": false,
          "internalType": "uint256",
          "name": "amount",
          "type": "uint256"
        },
        {
          "indexed": false,
          "internalType": "string",
          "name": "feeType",
          "type": "string"
        }
      ],
      "name": "FeeCollected",
      "type": "event"
    },
    {
      "anonymous": false,
      "inputs": [
        {
          "indexed": true,
          "internalType": "address",
          "name": "deleter",
          "type": "address"
        },
        {
          "indexed": true,
          "internalType": "string",
          "name": "ipfsHash",
          "type": "string"
        },
        {
          "indexed": false,
          "internalType": "uint256",
          "name": "sizeFreed",
          "type": "uint256"
        }
      ],
      "name": "FileDeleted",
      "type": "event"
    },
    {
      "anonymous": false,
      "inputs": [
        {
          "indexed": true,
          "internalType": "string",
          "name": "ipfsHash",
          "type": "string"
        },
        {
          "indexed": true,
          "internalType": "address",
          "name": "purchaser",
          "type": "address"
        },
        {
          "indexed": true,
          "internalType": "address",
          "name": "uploader",
          "type": "address"
        },
        {
          "indexed": false,
          "internalType": "uint256",
          "name": "amountPaid",
          "type": "uint256"
        },
        {
          "indexed": false,
          "internalType": "uint256",
          "name": "pointsEarned",
          "type": "uint256"
        }
      ],
      "name": "FilePurchased",
      "type": "event"
    },
    {
      "anonymous": false,
      "inputs": [
        {
          "indexed": true,
          "internalType": "address",
          "name": "sender",
          "type": "address"
        },
        {
          "indexed": true,
          "internalType": "address",
          "name": "receiver",
          "type": "address"
        },
        {
          "indexed": true,
          "internalType": "string",
          "name": "ipfsHash",
          "type": "string"
        },
        {
          "indexed": false,
          "internalType": "uint256",
          "name": "feePaid",
          "type": "uint256"
        },
        {
          "indexed": false,
          "internalType": "uint256",
          "name": "pointsEarned",
          "type": "uint256"
        }
      ],
      "name": "FileShared",
      "type": "event"
    },
    {
      "anonymous": false,
      "inputs": [
        {
          "indexed": true,
          "internalType": "address",
          "name": "uploader",
          "type": "address"
        },
        {
          "indexed": true,
          "internalType": "string",
          "name": "ipfsHash",
          "type": "string"
        },
        {
          "indexed": false,
          "internalType": "string",
          "name": "name",
          "type": "string"
        },
        {
          "indexed": false,
          "internalType": "uint256",
          "name": "size",
          "type": "uint256"
        },
        {
          "indexed": false,
          "internalType": "uint256",
          "name": "pointsEarned",
          "type": "uint256"
        }
      ],
      "name": "FileUploaded",
      "type": "event"
    },
    {
      "anonymous": false,
      "inputs": [
        {
          "indexed": true,
          "internalType": "string",
          "name": "ipfsHash",
          "type": "string"
        },
        {
          "indexed": false,
          "internalType": "bool",
          "name": "isPublic",
          "type": "bool"
        },
        {
          "indexed": false,
          "internalType": "uint256",
          "name": "newPrice",
          "type": "uint256"
        }
      ],
      "name": "FileVisibilityChanged",
      "type": "event"
    },
    {
      "anonymous": false,
      "inputs": [
        {
          "indexed": true,
          "internalType": "address",
          "name": "previousOwner",
          "type": "address"
        },
        {
          "indexed": true,
          "internalType": "address",
          "name": "newOwner",
          "type": "address"
        }
      ],
      "name": "OwnershipTransferred",
      "type": "event"
    },
    {
      "anonymous": false,
      "inputs": [
        {
          "indexed": true,
          "internalType": "address",
          "name": "user",
          "type": "address"
        },
        {
          "indexed": false,
          "internalType": "uint256",
          "name": "points",
          "type": "uint256"
        },
        {
          "indexed": false,
          "internalType": "string",
          "name": "reason",
          "type": "string"
        }
      ],
      "name": "PointsEarned",
      "type": "event"
    },
    {
      "anonymous": false,
      "inputs": [
        {
          "indexed": true,
          "internalType": "address",
          "name": "user",
          "type": "address"
        },
        {
          "indexed": false,
          "internalType": "uint256",
          "name": "totalPoints",
          "type": "uint256"
        }
      ],
      "name": "PointsLeaderboardUpdate",
      "type": "event"
    },
    {
      "anonymous": false,
      "inputs": [
        {
          "indexed": true,
          "internalType": "address",
          "name": "user",
          "type": "address"
        },
        {
          "indexed": false,
          "internalType": "string",
          "name": "code",
          "type": "string"
        }
      ],
      "name": "ReferralCodeGenerated",
      "type": "event"
    },
    {
      "anonymous": false,
      "inputs": [
        {
          "indexed": true,
          "internalType": "address",
          "name": "referrer",
          "type": "address"
        },
        {
          "indexed": false,
          "internalType": "uint256",
          "name": "newCount",
          "type": "uint256"
        }
      ],
      "name": "ReferralCountUpdated",
      "type": "event"
    },
    {
      "anonymous": false,
      "inputs": [
        {
          "indexed": true,
          "internalType": "address",
          "name": "user",
          "type": "address"
        },
        {
          "indexed": false,
          "internalType": "uint256",
          "name": "newLimit",
          "type": "uint256"
        },
        {
          "indexed": false,
          "internalType": "uint256",
          "name": "pricePaid",
          "type": "uint256"
        }
      ],
      "name": "StorageLimitUpgraded",
      "type": "event"
    },
    {
      "anonymous": false,
      "inputs": [
        {
          "indexed": true,
          "internalType": "address",
          "name": "newUser",
          "type": "address"
        },
        {
          "indexed": true,
          "internalType": "address",
          "name": "referrer",
          "type": "address"
        },
        {
          "indexed": false,
          "internalType": "uint256",
          "name": "pointsAwarded",
          "type": "uint256"
        }
      ],
      "name": "UserRegistered",
      "type": "event"
    },
    {
      "anonymous": false,
      "inputs": [
        {
          "indexed": true,
          "internalType": "address",
          "name": "user",
          "type": "address"
        },
        {
          "indexed": false,
          "internalType": "uint256",
          "name": "amount",
          "type": "uint256"
        }
      ],
      "name": "Withdrawn",
      "type": "event"
    },
    {
      "stateMutability": "payable",
      "type": "fallback",
      "payable": true
    },
    {
      "inputs": [],
      "name": "DOWNLOAD_POINTS",
      "outputs": [
        {
          "internalType": "uint256",
          "name": "",
          "type": "uint256"
        }
      ],
      "stateMutability": "view",
      "type": "function",
      "constant": true
    },
    {
      "inputs": [],
      "name": "MAX_DOWNLOAD_PRICE",
      "outputs": [
        {
          "internalType": "uint256",
          "name": "",
          "type": "uint256"
        }
      ],
      "stateMutability": "view",
      "type": "function",
      "constant": true
    },
    {
      "inputs": [],
      "name": "MAX_SHARE_POINTS_THRESHOLD_BYTES",
      "outputs": [
        {
          "internalType": "uint256",
          "name": "",
          "type": "uint256"
        }
      ],
      "stateMutability": "view",
      "type": "function",
      "constant": true
    },
    {
      "inputs": [],
      "name": "MAX_SINGLE_SHARE_1GB_BYTES",
      "outputs": [
        {
          "internalType": "uint256",
          "name": "",
          "type": "uint256"
        }
      ],
      "stateMutability": "view",
      "type": "function",
      "constant": true
    },
    {
      "inputs": [],
      "name": "MAX_SINGLE_SHARE_5GB_BYTES",
      "outputs": [
        {
          "internalType": "uint256",
          "name": "",
          "type": "uint256"
        }
      ],
      "stateMutability": "view",
      "type": "function",
      "constant": true
    },
    {
      "inputs": [],
      "name": "MAX_SINGLE_UPLOAD_1GB_BYTES",
      "outputs": [
        {
          "internalType": "uint256",
          "name": "",
          "type": "uint256"
        }
      ],
      "stateMutability": "view",
      "type": "function",
      "constant": true
    },
    {
      "inputs": [],
      "name": "MAX_SINGLE_UPLOAD_5GB_BYTES",
      "outputs": [
        {
          "internalType": "uint256",
          "name": "",
          "type": "uint256"
        }
      ],
      "stateMutability": "view",
      "type": "function",
      "constant": true
    },
    {
      "inputs": [],
      "name": "MAX_STORAGE_1GB_BYTES",
      "outputs": [
        {
          "internalType": "uint256",
          "name": "",
          "type": "uint256"
        }
      ],
      "stateMutability": "view",
      "type": "function",
      "constant": true
    },
    {
      "inputs": [],
      "name": "MAX_STORAGE_5GB_BYTES",
      "outputs": [
        {
          "internalType": "uint256",
          "name": "",
          "type": "uint256"
        }
      ],
      "stateMutability": "view",
      "type": "function",
      "constant": true
    },
    {
      "inputs": [],
      "name": "MIN_DOWNLOAD_PRICE",
      "outputs": [
        {
          "internalType": "uint256",
          "name": "",
          "type": "uint256"
        }
      ],
      "stateMutability": "view",
      "type": "function",
      "constant": true
    },
    {
      "inputs": [],
      "name": "OWNER_DOWNLOAD_FEE_PERCENTAGE",
      "outputs": [
        {
          "internalType": "uint256",
          "name": "",
          "type": "uint256"
        }
      ],
      "stateMutability": "view",
      "type": "function",
      "constant": true
    },
    {
      "inputs": [],
      "name": "REFERRAL_POINTS",
      "outputs": [
        {
          "internalType": "uint256",
          "name": "",
          "type": "uint256"
        }
      ],
      "stateMutability": "view",
      "type": "function",
      "constant": true
    },
    {
      "inputs": [],
      "name": "SHARE_FEE",
      "outputs": [
        {
          "internalType": "uint256",
          "name": "",
          "type": "uint256"
        }
      ],
      "stateMutability": "view",
      "type": "function",
      "constant": true
    },
    {
      "inputs": [],
      "name": "SHARE_POINTS",
      "outputs": [
        {
          "internalType": "uint256",
          "name": "",
          "type": "uint256"
        }
      ],
      "stateMutability": "view",
      "type": "function",
      "constant": true
    },
    {
      "inputs": [],
      "name": "UPGRADE_TO_5GB_PRICE",
      "outputs": [
        {
          "internalType": "uint256",
          "name": "",
          "type": "uint256"
        }
      ],
      "stateMutability": "view",
      "type": "function",
      "constant": true
    },
    {
      "inputs": [],
      "name": "UPLOAD_POINTS",
      "outputs": [
        {
          "internalType": "uint256",
          "name": "",
          "type": "uint256"
        }
      ],
      "stateMutability": "view",
      "type": "function",
      "constant": true
    },
    {
      "inputs": [
        {
          "internalType": "string",
          "name": "",
          "type": "string"
        }
      ],
      "name": "filesByHash",
      "outputs": [
        {
          "internalType": "string",
          "name": "name",
          "type": "string"
        },
        {
          "internalType": "string",
          "name": "ipfsHash",
          "type": "string"
        },
        {
          "internalType": "string",
          "name": "fileType",
          "type": "string"
        },
        {
          "internalType": "uint256",
          "name": "size",
          "type": "uint256"
        },
        {
          "internalType": "address",
          "name": "uploader",
          "type": "address"
        },
        {
          "internalType": "uint256",
          "name": "uploadTime",
          "type": "uint256"
        },
        {
          "internalType": "bool",
          "name": "isPublic",
          "type": "bool"
        },
        {
          "internalType": "uint256",
          "name": "downloadPrice",
          "type": "uint256"
        }
      ],
      "stateMutability": "view",
      "type": "function",
      "constant": true
    },
    {
      "inputs": [
        {
          "internalType": "address",
          "name": "",
          "type": "address"
        }
      ],
      "name": "isRegistered",
      "outputs": [
        {
          "internalType": "bool",
          "name": "",
          "type": "bool"
        }
      ],
      "stateMutability": "view",
      "type": "function",
      "constant": true
    },
    {
      "inputs": [],
      "name": "owner",
      "outputs": [
        {
          "internalType": "address",
          "name": "",
          "type": "address"
        }
      ],
      "stateMutability": "view",
      "type": "function",
      "constant": true
    },
    {
      "inputs": [
        {
          "internalType": "string",
          "name": "",
          "type": "string"
        }
      ],
      "name": "referralCodeToUser",
      "outputs": [
        {
          "internalType": "address",
          "name": "",
          "type": "address"
        }
      ],
      "stateMutability": "view",
      "type": "function",
      "constant": true
    },
    {
      "inputs": [],
      "name": "renounceOwnership",
      "outputs": [],
      "stateMutability": "nonpayable",
      "type": "function"
    },
    {
      "inputs": [
        {
          "internalType": "address",
          "name": "newOwner",
          "type": "address"
        }
      ],
      "name": "transferOwnership",
      "outputs": [],
      "stateMutability": "nonpayable",
      "type": "function"
    },
    {
      "inputs": [
        {
          "internalType": "address",
          "name": "",
          "type": "address"
        }
      ],
      "name": "userBalances",
      "outputs": [
        {
          "internalType": "uint256",
          "name": "",
          "type": "uint256"
        }
      ],
      "stateMutability": "view",
      "type": "function",
      "constant": true
    },
    {
      "inputs": [
        {
          "internalType": "address",
          "name": "",
          "type": "address"
        },
        {
          "internalType": "uint256",
          "name": "",
          "type": "uint256"
        }
      ],
      "name": "userFiles",
      "outputs": [
        {
          "internalType": "string",
          "name": "name",
          "type": "string"
        },
        {
          "internalType": "string",
          "name": "ipfsHash",
          "type": "string"
        },
        {
          "internalType": "string",
          "name": "fileType",
          "type": "string"
        },
        {
          "internalType": "uint256",
          "name": "size",
          "type": "uint256"
        },
        {
          "internalType": "address",
          "name": "uploader",
          "type": "address"
        },
        {
          "internalType": "uint256",
          "name": "uploadTime",
          "type": "uint256"
        },
        {
          "internalType": "bool",
          "name": "isPublic",
          "type": "bool"
        },
        {
          "internalType": "uint256",
          "name": "downloadPrice",
          "type": "uint256"
        }
      ],
      "stateMutability": "view",
      "type": "function",
      "constant": true
    },
    {
      "inputs": [
        {
          "internalType": "address",
          "name": "",
          "type": "address"
        }
      ],
      "name": "userPoints",
      "outputs": [
        {
          "internalType": "uint256",
          "name": "",
          "type": "uint256"
        }
      ],
      "stateMutability": "view",
      "type": "function",
      "constant": true
    },
    {
      "inputs": [
        {
          "internalType": "address",
          "name": "",
          "type": "address"
        }
      ],
      "name": "userReferralCode",
      "outputs": [
        {
          "internalType": "string",
          "name": "",
          "type": "string"
        }
      ],
      "stateMutability": "view",
      "type": "function",
      "constant": true
    },
    {
      "inputs": [
        {
          "internalType": "address",
          "name": "",
          "type": "address"
        }
      ],
      "name": "userReferralCount",
      "outputs": [
        {
          "internalType": "uint256",
          "name": "",
          "type": "uint256"
        }
      ],
      "stateMutability": "view",
      "type": "function",
      "constant": true
    },
    {
      "inputs": [
        {
          "internalType": "address",
          "name": "",
          "type": "address"
        }
      ],
      "name": "userStorageLimit",
      "outputs": [
        {
          "internalType": "uint256",
          "name": "",
          "type": "uint256"
        }
      ],
      "stateMutability": "view",
      "type": "function",
      "constant": true
    },
    {
      "inputs": [
        {
          "internalType": "address",
          "name": "",
          "type": "address"
        }
      ],
      "name": "userStorageUsed",
      "outputs": [
        {
          "internalType": "uint256",
          "name": "",
          "type": "uint256"
        }
      ],
      "stateMutability": "view",
      "type": "function",
      "constant": true
    },
    {
      "stateMutability": "payable",
      "type": "receive",
      "payable": true
    },
    {
      "inputs": [
        {
          "internalType": "string",
          "name": "_referralCode",
          "type": "string"
        }
      ],
      "name": "registerUser",
      "outputs": [],
      "stateMutability": "nonpayable",
      "type": "function"
    },
    {
      "inputs": [],
      "name": "generateReferralCode",
      "outputs": [
        {
          "internalType": "string",
          "name": "",
          "type": "string"
        }
      ],
      "stateMutability": "nonpayable",
      "type": "function"
    },
    {
      "inputs": [
        {
          "internalType": "address",
          "name": "_user",
          "type": "address"
        }
      ],
      "name": "getReferralCode",
      "outputs": [
        {
          "internalType": "string",
          "name": "",
          "type": "string"
        }
      ],
      "stateMutability": "view",
      "type": "function",
      "constant": true
    },
    {
      "inputs": [
        {
          "internalType": "address",
          "name": "_user",
          "type": "address"
        }
      ],
      "name": "getReferralCount",
      "outputs": [
        {
          "internalType": "uint256",
          "name": "",
          "type": "uint256"
        }
      ],
      "stateMutability": "view",
      "type": "function",
      "constant": true
    },
    {
      "inputs": [],
      "name": "deposit",
      "outputs": [],
      "stateMutability": "payable",
      "type": "function",
      "payable": true
    },
    {
      "inputs": [
        {
          "internalType": "uint256",
          "name": "_amount",
          "type": "uint256"
        }
      ],
      "name": "withdraw",
      "outputs": [],
      "stateMutability": "nonpayable",
      "type": "function"
    },
    {
      "inputs": [],
      "name": "getUserBalance",
      "outputs": [
        {
          "internalType": "uint256",
          "name": "",
          "type": "uint256"
        }
      ],
      "stateMutability": "view",
      "type": "function",
      "constant": true
    },
    {
      "inputs": [],
      "name": "upgradeStorage",
      "outputs": [],
      "stateMutability": "nonpayable",
      "type": "function"
    },
    {
      "inputs": [
        {
          "internalType": "string",
          "name": "_name",
          "type": "string"
        },
        {
          "internalType": "string",
          "name": "_ipfsHash",
          "type": "string"
        },
        {
          "internalType": "string",
          "name": "_fileType",
          "type": "string"
        },
        {
          "internalType": "uint256",
          "name": "_size",
          "type": "uint256"
        }
      ],
      "name": "uploadFile",
      "outputs": [],
      "stateMutability": "nonpayable",
      "type": "function"
    },
    {
      "inputs": [
        {
          "internalType": "string",
          "name": "_ipfsHash",
          "type": "string"
        },
        {
          "internalType": "address",
          "name": "_receiver",
          "type": "address"
        }
      ],
      "name": "shareFile",
      "outputs": [],
      "stateMutability": "nonpayable",
      "type": "function"
    },
    {
      "inputs": [
        {
          "internalType": "string",
          "name": "_ipfsHash",
          "type": "string"
        },
        {
          "internalType": "bool",
          "name": "_isPublic",
          "type": "bool"
        },
        {
          "internalType": "uint256",
          "name": "_price",
          "type": "uint256"
        }
      ],
      "name": "setFileVisibilityAndPrice",
      "outputs": [],
      "stateMutability": "nonpayable",
      "type": "function"
    },
    {
      "inputs": [
        {
          "internalType": "string",
          "name": "_ipfsHash",
          "type": "string"
        }
      ],
      "name": "purchaseFile",
      "outputs": [],
      "stateMutability": "nonpayable",
      "type": "function"
    },
    {
      "inputs": [
        {
          "internalType": "string",
          "name": "_ipfsHash",
          "type": "string"
        }
      ],
      "name": "deleteFile",
      "outputs": [],
      "stateMutability": "nonpayable",
      "type": "function"
    },
    {
      "inputs": [],
      "name": "getMyFiles",
      "outputs": [
        {
          "components": [
            {
              "internalType": "string",
              "name": "name",
              "type": "string"
            },
            {
              "internalType": "string",
              "name": "ipfsHash",
              "type": "string"
            },
            {
              "internalType": "string",
              "name": "fileType",
              "type": "string"
            },
            {
              "internalType": "uint256",
              "name": "size",
              "type": "uint256"
            },
            {
              "internalType": "address",
              "name": "uploader",
              "type": "address"
            },
            {
              "internalType": "uint256",
              "name": "uploadTime",
              "type": "uint256"
            },
            {
              "internalType": "bool",
              "name": "isPublic",
              "type": "bool"
            },
            {
              "internalType": "uint256",
              "name": "downloadPrice",
              "type": "uint256"
            }
          ],
          "internalType": "struct DShareStorage.File[]",
          "name": "",
          "type": "tuple[]"
        }
      ],
      "stateMutability": "view",
      "type": "function",
      "constant": true
    },
    {
      "inputs": [
        {
          "internalType": "string",
          "name": "_ipfsHash",
          "type": "string"
        }
      ],
      "name": "getFileByHash",
      "outputs": [
        {
          "internalType": "string",
          "name": "",
          "type": "string"
        },
        {
          "internalType": "string",
          "name": "",
          "type": "string"
        },
        {
          "internalType": "uint256",
          "name": "",
          "type": "uint256"
        },
        {
          "internalType": "address",
          "name": "",
          "type": "address"
        },
        {
          "internalType": "uint256",
          "name": "",
          "type": "uint256"
        },
        {
          "internalType": "bool",
          "name": "",
          "type": "bool"
        },
        {
          "internalType": "uint256",
          "name": "",
          "type": "uint256"
        }
      ],
      "stateMutability": "view",
      "type": "function",
      "constant": true
    },
    {
      "inputs": [
        {
          "internalType": "address",
          "name": "_user",
          "type": "address"
        }
      ],
      "name": "getUserStorageInfo",
      "outputs": [
        {
          "internalType": "uint256",
          "name": "currentUsed",
          "type": "uint256"
        },
        {
          "internalType": "uint256",
          "name": "limit",
          "type": "uint256"
        }
      ],
      "stateMutability": "view",
      "type": "function",
      "constant": true
    },
    {
      "inputs": [],
      "name": "getMyPoints",
      "outputs": [
        {
          "internalType": "uint256",
          "name": "",
          "type": "uint256"
        }
      ],
      "stateMutability": "view",
      "type": "function",
      "constant": true
    },
    {
      "inputs": [
        {
          "internalType": "uint256",
          "name": "_amount",
          "type": "uint256"
        }
      ],
      "name": "withdrawContractFees",
      "outputs": [],
      "stateMutability": "nonpayable",
      "type": "function"
    }
  ],
  "bytecode": "0x6080806040523461007c573315610067575f8054336001600160a01b03198216811783556040519290916001600160a01b0316907f8be0079c531659141344cd1fd0a4f28419497f9722a3daafe3b4186f6b6457e09080a35f600b5561396b90816100818239f35b631e4fbdf760e01b81525f6004820152602490fd5b5f80fdfe60806040526004361015610026575b361561001e5761001c613464565b005b61001c613464565b5f3560e01c80630160baf71461306857806307646f1d14612e555780630ac48c4a14612ded5780630cfa924914612dcb5780630d6330fa14611a435780631158d3201461285857806317bd2a24146128165780631c3830ad146128535780631ca6a55b1461285357806324acbd6914610b7757806326224c641461281b57806326c519bd146128165780632e1a7d4d146126d857806344d8a3ec146126b75780634681c0ba146126985780634e9e691a146126545780634edeb642146126385780634f97f3741461261d578063618c506d1461151d578063631654f4146125ff5780636ccc20f014611eb0578063704f1b9414611b3b578063715018a614611ae4578063718f38a614611a4857806371a0867b14611a435780637d36b18a1461024e57806385035a851461187d5780638da5cb5b1461185657806390398b371461179c57806390a4b0df1461156957806392c403441461151d578063a99100541461119c578063b0a2fc1b14610c58578063b7013dc114610c31578063ba9c463714610c0a578063c3af35bf14610bec578063c3c5a54714610baf578063c855826114610b77578063cecaf69e14610a87578063d0e30db0146109c1578063d91dd84f14610989578063dc68d9e914610951578063ebceb82c14610310578063f2fde38b1461028b578063f50ddbc714610253578063fa1bfb9b1461024e5763fde59fa30361000e573461024a575f36600319011261024a576020604051600a8152f35b5f80fd5b6133b3565b3461024a57602036600319011261024a576001600160a01b03610274613370565b165f526005602052602060405f2054604051908152f35b3461024a57602036600319011261024a576102a4613370565b6102ac6133ce565b6001600160a01b039081169081156102f8575f54826001600160601b0360a01b8216175f55167f8be0079c531659141344cd1fd0a4f28419497f9722a3daafe3b4186f6b6457e05f80a3005b604051631e4fbdf760e01b81525f6004820152602490fd5b3461024a57604036600319011261024a576004356001600160401b03811161024a57610340903690600401613157565b6001600160a01b03602480358281169081900361024a5761036384511515613595565b604051928451916103998260048789818861038560209a8b8095019d8e61319d565b81016002815203019020015416331461376b565b335f52600a835260ff60405f205416156108fd57801515806108f3575b156108af57335f52600683526509184e72a000918260405f20541061085257815f52600a845260ff60405f205416156107e857604051848189516103fb81838c61319d565b81016002815203019020906104178160048401541615156137c9565b335f5260048552634000000060405f2054145f1461076e576312c00000600383015411610704575b335f526006855260405f208054906509184e729fff1982019182116106f15755805f54165f526006855260405f208054908582018092116106f157555f54167fbde344b6f67c3bf7e0ecbbf22b04267d5d3ae0aa1909c0000b812f6b14ce45b96080604051868152604088820152600960408201526853686172652046656560b81b6060820152a2815f526003845260405f2054946104e46003830196875490613457565b835f526004865260405f20541061069c57505f805b835f52600180875260405f20805483101561068d5761053261054061051f858594613386565b506040519283918c83019586910161380b565b03601f19810183528261311b565b519020898b61056d8a60405180936105608383019687925192839161319d565b810103808452018261311b565b51902014610584575061057f906134c3565b6104f9565b9293949596975050505b15610659575b50630c8000005f94541115610650575b6105e960409495335f5260058552855f206105c0888254613457565b9055335f5260058552855f205486519081525f80516020613916833981519152863392a261374b565b91845190815285848201527f660b0bd0d78bce8eacfcf38754fac05cc11baf2f86d9d56c9e3309e480fdd855853392a48151928352820152600a60408201526946696c6520536861726560b01b60608201525f805160206138f683398151915260803392a2005b600a93506105a4565b61066d90825f526001855260405f2061388a565b8354815f526003845261068560405f20918254613457565b905585610594565b5050509091929394955061058e565b8460296084926040519262461bcd60e51b845260048401528201527f526563656976657227732073746f72616765206c696d69742077696c6c20626560448201526808195e18d95959195960ba1b6064820152fd5b87634e487b7160e01b5f5260116004525ffd5b60405162461bcd60e51b8152600481018690526037818801527f46696c652073697a6520657863656564732031474220706c616e27732073696e60448201527f676c65207368617265206c696d697420283330304d42290000000000000000006064820152608490fd5b63258000006003830154111561043f5760405162461bcd60e51b8152600481018690526037818801527f46696c652073697a6520657863656564732035474220706c616e27732073696e60448201527f676c65207368617265206c696d697420283630304d42290000000000000000006064820152608490fd5b60405162461bcd60e51b815260048101859052603b818701527f5265636569766572206d7573742062652061207265676973746572656420757360448201527f657220746f2072656365697665207368617265642066696c65732e00000000006064820152608490fd5b60405162461bcd60e51b8152600481018590526030818701527f496e73756666696369656e74205365706f6c6961204554482062616c616e636560448201526f20666f722073686172696e672066656560801b6064820152608490fd5b60405162461bcd60e51b8152600481018490526018818601527f496e76616c6964207265636569766572206164647265737300000000000000006044820152606490fd5b50338114156103b6565b60405162461bcd60e51b8152600481018490526027818601527f55736572206d757374206265207265676973746572656420746f207368617265604482015266103334b632b99760c91b6064820152608490fd5b3461024a57602036600319011261024a576001600160a01b03610972613370565b165f526004602052602060405f2054604051908152f35b3461024a57602036600319011261024a576001600160a01b036109aa613370565b165f526003602052602060405f2054604051908152f35b5f36600319011261024a57335f52600a6020526109e460ff60405f2054166133f9565b3415610a3157335f52600660205260405f20610a01348254613457565b90556040513481527f2da466a7b24304f47e87fa2e1e5a81b9831ce54fec19055ce277ca2f39ba42c460203392a2005b60405162461bcd60e51b815260206004820152602860248201527f4465706f73697420616d6f756e74206d7573742062652067726561746572207460448201526768616e207a65726f60c01b6064820152608490fd5b3461024a57602036600319011261024a576004356001600160401b03811161024a57610ade6020610abf610b49933690600401613157565b610acb81511515613595565b816040519382858094519384920161319d565b60029082019081520301902060048101546001600160a01b0316610b038115156137c9565b600382015490600583015460ff60068501541690600785015492610b57610b356002610b2e896131f6565b98016131f6565b60405198899860e08a5260e08a0190613297565b9088820360208a0152613297565b94604087015260608601526080850152151560a084015260c08301520390f35b3461024a57602036600319011261024a576001600160a01b03610b98613370565b165f526009602052602060405f2054604051908152f35b3461024a57602036600319011261024a576001600160a01b03610bd0613370565b165f52600a602052602060ff60405f2054166040519015158152f35b3461024a575f36600319011261024a576020604051630c8000008152f35b3461024a575f36600319011261024a57335f526005602052602060405f2054604051908152f35b3461024a575f36600319011261024a57335f526006602052602060405f2054604051908152f35b3461024a575f36600319011261024a57335f52600a60205260ff60405f2054161561113b57335f526007602052610c9260405f20546131be565b6110f75760605f809133811b32821b915b8315806110ed575b15610f0d5750600b805490610cbf826134c3565b905560405190602082019042825283604084015284605484015244606884015243608884015260a89081840152825260e08201918083106001600160401b03841117610ef9576298968092604052519020069081935f947a184f03e93ff9f4daa797ed6e38ed64bf6a1f01000000000000000080851015610eea575b50600a906d04ee2d6d415b85acef810000000080821015610edd575b50662386f26fc1000080821015610ed0575b506305f5e10080821015610ec3575b5061271080821015610eb6575b50606480821015610ea9575b501015610e9f575b600a60216001870196610dab8861313c565b97610db9604051998a61311b565b808952610dc8601f199161313c565b013660208a01378701015b5f1901936f181899199a1a9b1b9c1cb0b131b232b360811b8282061a855304928315610e0157600a90610dd3565b50929150925b600781511015610e4d57610e4860216040518093600360fc1b6020830152610e38815180926020868601910161319d565b810103600181018452018261311b565b610e07565b909291936040518251610e6481836020870161319d565b60089082019081528190036020019020546001600160a01b031615610e96575b610e8d906134c3565b93929190610ca3565b60019450610e84565b9360010193610d99565b6002910496019588610d91565b6004910496019588610d85565b6008910496019588610d78565b6010910496019588610d69565b6020910496019588610d57565b6040965084049050600a610d3b565b634e487b7160e01b5f52604160045260245ffd5b831561106557335f52600760205260405f20908051916001600160401b038311610ef957610f4583610f3f83546131be565b836134e7565b6020601f8411600114611001579280610ff2945f91610ff6575b508160011b915f199060031b1c19161790555b6040516020818351610f87818385880161319d565b81016008815203019020336001600160601b0360a01b825416179055604051602081527f86d606287c9d4f3a350b0e6ea78a04d97425fff091713f4a433942578dc6f161339180610fdb6020820186613297565b0390a2604051918291602083526020830190613297565b0390f35b905083015185610f5f565b601f19841690825f5260205f20915f5b81811061104d5750918591610ff29660019410611035575b5050811b019055610f72565b8501515f1960f88460031b161c191690558580611029565b91926020600181928689015181550194019201611011565b60405162461bcd60e51b815260206004820152605460248201527f436f756c64206e6f742067656e6572617465206120756e69717565207265666560448201527f7272616c20636f6465206166746572206d756c7469706c6520617474656d7074606482015273399710283632b0b9b2903a393c9030b3b0b4b71760611b608482015260a490fd5b50600a8510610cab565b606460405162461bcd60e51b815260206004820152602060248201527f596f7520616c72656164792068617665206120726566657272616c20636f64656044820152fd5b60405162461bcd60e51b815260206004820152603360248201527f55736572206d757374206265207265676973746572656420746f2067656e6572604482015272617465206120726566657272616c20636f646560681b6064820152608490fd5b3461024a5760208060031936011261024a576004356001600160401b03811161024a576111cd903690600401613157565b6111d981511515613595565b60405190805190611214848201926111f281868661319d565b8401600281526004858760018060a01b0397889403019020015416331461376b565b335f52600a845260ff60405f205416156114c7576040518481835161123a81838861319d565b81016002815203019020926004600385015494015416916040518581845161126381838761319d565b81016002815203019020611276816138ad565b5f60076001926112878482016138ad565b611293600282016138ad565b82600382015582600482015582600582015582600682015501555f915f90825f905b611445575b5050611311575b5050611305907f4f290849018eb780affafba63563006086546149769e7b527f0e61c4f282de07925f526003855260405f206112fe858254613588565b905561374b565b926040519283523392a3005b919092805f5282865260405f2054935f19948581019081116114315781106113ed575b50805f5282865260405f2093845480156113d957016113538186613386565b9590956113c6575f6007876113966113059861138f7f4f290849018eb780affafba63563006086546149769e7b527f0e61c4f282de079b6138ad565b82016138ad565b6113a2600282016138ad565b826003820155826004820155826005820155826006820155015555928192506112c1565b634e487b7160e01b5f525f60045260245ffd5b634e487b7160e01b5f52603160045260245ffd5b815f5283875260405f20908154868101908111611431576114146114259161142b94613386565b5091845f52868a5260405f20613386565b906136af565b86611334565b634e487b7160e01b5f52601160045260245ffd5b865f528389528360405f2080548310156114c0578261146391613386565b5061147c8b61053260405193849283019586910161380b565b5190206040518a8101906114988c828b5161056081878b61319d565b519020146114b257906114ab84926134c3565b90916112b5565b9293505050908087806112ba565b50506112ba565b60405162461bcd60e51b815260048101859052602860248201527f55736572206d757374206265207265676973746572656420746f2064656c657460448201526732903334b632b99760c11b6064820152608490fd5b3461024a57602036600319011261024a576001600160a01b0361153e613370565b165f526007602052610ff261155560405f206131f6565b604051918291602083526020830190613297565b3461024a575f36600319011261024a57335f526020600a815260ff908160405f2054161561174957335f52600180825260405f20918254906001600160401b038211610ef957838584604051946005926115c78683861b018861311b565b8187525f9485528585208688019591865b8484106116b25750505050506040519484869586019181875251809252604082818801951b87010194935f905b8382106116125787870388f35b918496819592949698508190603f198b820301855289519060e0806116686116566116468651610100808852870190613297565b8787015186820389880152613297565b60408601518582036040870152613297565b9360608082015190850152608060018060a01b0381830151169085015260a0808201519085015260c080820151151590850152015191015298019201920187969593919492611605565b9460088982999a9760409c999c516116c9816130ff565b6116d2876131f6565b81526116df8588016131f6565b838201526116ef600288016131f6565b60408201526003870154606082015260048701546001600160a01b031660808201528d87015460a082015260068701548616151560c0820152600787015460e08201528152989b979a9997989290950194930192016115d8565b6084906040519062461bcd60e51b82526004820152602660248201527f55736572206d757374206265207265676973746572656420746f2076696577206044820152653334b632b99760d11b6064820152fd5b3461024a57602036600319011261024a576004356117b86133ce565b8047106117ff575f8080838194156117d0811561352a565b82546001600160a01b03169083906117f6575bf1156117eb57005b6040513d5f823e3d90fd5b506108fc6117e3565b60405162461bcd60e51b815260206004820152602960248201527f496e73756666696369656e7420636f6e74726163742062616c616e636520746f60448201526820776974686472617760b81b6064820152608490fd5b3461024a575f36600319011261024a575f546040516001600160a01b039091168152602090f35b3461024a575f36600319011261024a57335f526020600a815260ff60405f205416156119eb57335f5260048152634000000060405f20540361199557335f526006815267016345785d8a00008060405f20541061193b57335f526006825260405f2080549067016345785d89ffff1982019182116114315755335f5260048252640140000000918260405f20556040519283528201527f9152b89ee0be7552fe4937c9eb822b0a20a6feca93adb429c221a31cf479d80360403392a2005b60405162461bcd60e51b815260048101839052602c60248201527f496e73756666696369656e74205365706f6c6961204554482062616c616e636560448201526b20666f72207570677261646560a01b6064820152608490fd5b6084906040519062461bcd60e51b82526004820152602960248201527f596f752061726520616c7265616479206f6e207468652035474220706c616e2060448201526837b9103434b3b432b960b91b6064820152fd5b6084906040519062461bcd60e51b82526004820152602b60248201527f55736572206d757374206265207265676973746572656420746f20757067726160448201526a32329039ba37b930b3b29760a91b6064820152fd5b613314565b3461024a57604036600319011261024a57611a61613370565b6001600160a01b039081165f90815260016020526040902080546024359081101561024a57611a8f91613386565b5090610ff2611a9d836131f6565b91611aaa600185016131f6565b93611ab7600282016131f6565b91600382015490600483015416600583015491600760ff60068601541694015494604051988998896132bc565b3461024a575f36600319011261024a57611afc6133ce565b5f80546001600160a01b0319811682556001600160a01b03167f8be0079c531659141344cd1fd0a4f28419497f9722a3daafe3b4186f6b6457e08280a3005b3461024a5760208060031936011261024a576004356001600160401b03811161024a57611b6c903690600401613157565b335f52600a825260ff60405f205416611e6b57335f52600a825260405f20600160ff1982541617905560048252634000000060405f20555f825f9280519081611beb575b5050604051928352506001600160a01b03169133917f05345a91f639184e946e5aac384b1e9f74ae9ab08d775a7deddb3180cebecb239190a3005b611c009294508193506040519485910161319d565b600890820190815281900382019020546001600160a01b03168015611e2e57338114611df157805f52600a825260ff60405f20541615611da0576103e890335f526005835260405f2080549083820180921161143157556040518281526040848201526013604082015272526566657272616c202852656665727265642960681b60608201525f805160206138f6833981519152908160803392a2335f526005845260405f20546040519081525f805160206139168339815191529081863392a2825f526005855260405f2080549285840180941161143157849384925560806040518781526040898201526013604082015272526566657272616c202852656665727265722960681b6060820152a2815f52600585528460405f2054604051908152a2805f526009835260405f2090815460018101809111611431577f05345a91f639184e946e5aac384b1e9f74ae9ab08d775a7deddb3180cebecb239255805f5260098452807fef8663b9751c94e9c58a80fa2198dc99714bf9d04d8d02e1b285ffdb39e80f688560405f2054604051908152a29050828480611bb0565b60405162461bcd60e51b815260048101839052602360248201527f5265666572726572206d7573742062652061207265676973746572656420757360448201526232b91760e91b6064820152608490fd5b60405162461bcd60e51b815260048101839052601560248201527421b0b73737ba103932b332b9103cb7bab939b2b63360591b6044820152606490fd5b60405162461bcd60e51b8152600481018390526015602482015274496e76616c696420726566657272616c20636f646560581b6044820152606490fd5b60405162461bcd60e51b815260048101839052601760248201527f5573657220616c726561647920726567697374657265640000000000000000006044820152606490fd5b3461024a57608036600319011261024a576004356001600160401b03811161024a57611ee0903690600401613157565b6024356001600160401b03811161024a57611eff903690600401613157565b604480356001600160401b03811161024a57611f1f903690600401613157565b90611f2c83511515613595565b335f52600a60205260ff60405f205416156125aa5760405160048451611f5681846020890161319d565b600290830190815282900360200190912001546001600160a01b031661255b57335f526003602052611f8e60643560405f2054613457565b335f52600460205260405f20541061251e57335f526004602052634000000060405f2054145f146124a1576312c000006064351161243757505b60405190611fd5826130ff565b838252826020830152604082015260643560608201523360808201524260a08201525f60c08201525f60e08201526040516020818451612018818385890161319d565b810160028152030190209080518051906001600160401b038211610ef957819061204c8261204687546131be565b876134e7565b602090601f83116001146123cf575f926123c4575b50508160011b915f199060031b1c19161782555b60208101518051906001600160401b038211610ef95781906120a78261209e60018801546131be565b600188016134e7565b602090601f8311600114612356575f9261234b575b50508160011b915f199060031b1c19161760018301555b60408101518051906001600160401b038211610ef957612103826120fa60028701546131be565b600287016134e7565b602090601f83116001146122da5791806007949260e0945f926122cf575b50508160011b915f199060031b1c19161760028501555b606081015160038501556004840160018060a01b036080830151166001600160601b0360a01b82541617905560a0810151600585015561218d60c08201511515600686019060ff801983541691151516179055565b0151910155335f52600160205260405f2060405160208184516121b3818385890161319d565b81016002815203019020815491600160401b831015610ef957826114259160016121df95018155613386565b335f52600360205260405f206121f86064358254613457565b9055335f52600560205260405f2090815460038101809111611431576122449255335f52600560205260405f20546040519081525f8051602061391683398151915260203392a261374b565b907faf5bcb532dbd747405fc9565ee753f1adf1adda2ee45335b4039c1a04eb4b09f61227b60405192606084526060840190613297565b916064356020820152600360408201528033930390a36040516003815260406020820152600b60408201526a119a5b1948155c1b1bd85960aa1b60608201525f805160206138f683398151915260803392a2005b015190508880612121565b90600285015f5260205f20915f5b601f19851681106123335750926007949260019260e09583601f1981161061231b575b505050811b016002850155612138565b01515f1960f88460031b161c1916905588808061230b565b919260206001819286850151815501940192016122e8565b0151905086806120bc565b9250600185015f5260205f20905f935b601f19841685106123a9576001945083601f19811610612391575b505050811b0160018301556120d3565b01515f1960f88460031b161c19169055868080612381565b81810151835560209485019460019093019290910190612366565b015190508680612061565b9250845f5260205f20905f935b601f198416851061241c576001945083601f19811610612404575b505050811b018255612075565b01515f1960f88460031b161c191690558680806123f7565b818101518355602094850194600190930192909101906123dc565b6084907f46696c652073697a6520657863656564732031474220706c616e27732073696e6040519162461bcd60e51b835260206004840152603860248401528201527f676c652075706c6f6164206c696d697420283330304d422900000000000000006064820152fd5b6325800000606435116124b45750611fc8565b6084907f46696c652073697a6520657863656564732035474220706c616e27732073696e6040519162461bcd60e51b835260206004840152603860248401528201527f676c652075706c6f6164206c696d697420283630304d422900000000000000006064820152fd5b6064907514dd1bdc9859d9481b1a5b5a5d08195e18d95959195960521b6040519162461bcd60e51b83526020600484015260166024840152820152fd5b6084907f46696c6520776974682074686973206861736820616c726561647920657869736040519162461bcd60e51b8352602060048401526022602484015282015261747360f01b6064820152fd5b6084907f55736572206d757374206265207265676973746572656420746f2075706c6f616040519162461bcd60e51b835260206004840152602860248401528201526732103334b632b99760c11b6064820152fd5b3461024a575f36600319011261024a57602060405163400000008152f35b3461024a575f36600319011261024a57602060405160038152f35b3461024a575f36600319011261024a5760206040516103e88152f35b3461024a57602036600319011261024a576001600160a01b03612675613370565b165f5260036020526040805f20546004602052815f205482519182526020820152f35b3461024a575f36600319011261024a5760206040516401400000008152f35b3461024a575f36600319011261024a576020604051662386f26fc100008152f35b3461024a5760208060031936011261024a5760043590335f52600a815260ff60405f205416156127bf57335f52600681528160405f20541061278457818015612721811561352a565b335f526006835260405f20612737838254613588565b90555f9061277b575b5f80809381933390f1156117eb577f7084f5476618d8e60b11ef0d7d3f06914655adb8793e28ff7f018d4c76d505d5906040519283523392a2005b506108fc612740565b6064906040519062461bcd60e51b825260048201526014602482015273496e73756666696369656e742062616c616e636560601b6044820152fd5b6084906040519062461bcd60e51b82526004820152602a60248201527f55736572206d757374206265207265676973746572656420746f2077697468646044820152693930bb90333ab732399760b11b6064820152fd5b613332565b3461024a57602036600319011261024a576001600160a01b0361283c613370565b165f526006602052602060405f2054604051908152f35b613352565b3461024a5760208060031936011261024a576004356001600160401b03811161024a57612889903690600401613157565b61289581511515613595565b335f52600a825260ff60405f20541615612d7357604051908051918381818401946128c181838861319d565b6002908201908152030190206004810180546001600160a01b03908116926128ea8415156137c9565b60ff60068201541615612d1b57833314612cc657335f526006875260405f2054936007820154809510612c6b575f52600a875260ff60405f20541615612c1b576014840284810460141485151715611431576064900461294a8186613588565b90335f526006895260405f20612961878254613588565b9055835f54165f526006895260405f2061297c828254613457565b90557fbde344b6f67c3bf7e0ecbbf22b04267d5d3ae0aa1909c0000b812f6b14ce45b96080855f54169260405190815260408c820152601a60408201527f446f776e6c6f61642046656520284f776e6572277320437574290000000000006060820152a2828454165f52600688526129f960405f20918254613457565b9055335f526003875260405f205490612a186003820192835490613457565b335f526004895260405f205410612bb0575f805b335f526001808b528a60405f208054841015612b9f578a612a87846105328f94612a5989612a6c92613386565b506040519283918983019586910161380b565b5190209360405180936105608383019687925192839161319d565b51902014612a9e5750612a99906134c3565b612a2c565b929394959697985050505b15612b6b575b5050335f526005855260405f209182546014810180911161143157612afb9355335f526005865260405f20546040519081525f80516020613916833981519152873392a254169261374b565b6040519182526014848301527ff0aea29c22aeac71170631f9d147db2136e554e98aaa99bdb0efec3c58be5b9760403393a4604080519160148352820152600d60408201526c119a5b1948111bdddb9b1bd859609a1b60608201525f805160206138f683398151915260803392a2005b612b7f90335f526001885260405f2061388a565b54335f5260038652612b9660405f20918254613457565b90558580612aaf565b505050509091929394959650612aa9565b60405162461bcd60e51b815260048101899052603d60248201527f596f75722073746f72616765206c696d69742077696c6c20626520657863656560448201527f64656420627920646f776e6c6f6164696e6720746869732066696c652e0000006064820152608490fd5b60405162461bcd60e51b815260048101889052602260248201527f55706c6f61646572206973206e6f742061207265676973746572656420757365604482015261391760f11b6064820152608490fd5b60405162461bcd60e51b815260048101899052602d60248201527f496e73756666696369656e74205365706f6c6961204554482062616c616e636560448201526c08199bdc88191bdddb9b1bd859609a1b6064820152608490fd5b60405162461bcd60e51b815260048101889052602760248201527f55706c6f616465722063616e6e6f74207075726368617365207468656972206f604482015266776e2066696c6560c81b6064820152608490fd5b60405162461bcd60e51b815260048101889052602a60248201527f46696c65206973206e6f74207075626c696320616e642063616e6e6f74206265604482015269081c1d5c98da185cd95960b21b6064820152608490fd5b60405162461bcd60e51b815260048101839052602a60248201527f55736572206d757374206265207265676973746572656420746f20707572636860448201526930b9b2903334b632b99760b11b6064820152608490fd5b3461024a575f36600319011261024a57602060405167016345785d8a00008152f35b3461024a57602036600319011261024a576004356001600160401b03811161024a57612e1f6020913690600401613157565b81612e33604051928381519384920161319d565b600890820190815281900382019020546040516001600160a01b039091168152f35b3461024a57606036600319011261024a576004356001600160401b03811161024a57612e85903690600401613157565b602435908115159081830361024a5760443590612ea481511515613595565b604051938151612ee0602096600488860193612ec181848761319d565b82019160028352898160018060a01b039403019020015416331461376b565b335f52600a865260ff60405f20541615612ffd576509184e72a00084101580612fec575b15612f81577f18240a064fcfcd67f51bb9fc21fb1ffaf35efe88e78bcd62745b58c991935478949284600760409694612f6e612f4e8b612f75978b51809381928a5192839161319d565b8101600281520301902091600683019060ff801983541691151516179055565b015561374b565b948351928352820152a2005b60405162461bcd60e51b815260048101879052603760248201527f446f776e6c6f6164207072696365206d757374206265206265747765656e203060448201527f2e30303030312045544820616e6420302e3031204554480000000000000000006064820152608490fd5b50662386f26fc10000841115612f04565b60405162461bcd60e51b815260048101879052603960248201527f55736572206d757374206265207265676973746572656420746f20736574206660448201527f696c65207669736962696c69747920616e642070726963652e000000000000006064820152608490fd5b3461024a57602036600319011261024a576004356001600160401b03811161024a576020610acb61309d923690600401613157565b810160028152030190206130b0816131f6565b610ff26130bf600184016131f6565b926130cc600282016131f6565b90600381015460018060a01b03600483015416600583015491600760ff60068601541694015494604051988998896132bc565b61010081019081106001600160401b03821117610ef957604052565b90601f801991011681019081106001600160401b03821117610ef957604052565b6001600160401b038111610ef957601f01601f191660200190565b81601f8201121561024a5780359061316e8261313c565b9261317c604051948561311b565b8284526020838301011161024a57815f926020809301838601378301015290565b5f5b8381106131ae5750505f910152565b818101518382015260200161319f565b90600182811c921680156131ec575b60208310146131d857565b634e487b7160e01b5f52602260045260245ffd5b91607f16916131cd565b9060405191825f825492613209846131be565b9081845260019485811690815f146132745750600114613234575b50506132329250038361311b565b565b909391505f52602090815f20935f915b81831061325c57505061323293508201015f80613224565b85548884018501529485019487945091830191613244565b91505061323294506020925060ff191682840152151560051b8201015f80613224565b906020916132b08151809281855285808601910161319d565b601f01601f1916010190565b9491926132e060e09794610b496132ee949c9b9a979c610100808b528a0190613297565b908682036040880152613297565b60608501989098526001600160a01b0316608084015260a0830152151560c08201520152565b3461024a575f36600319011261024a5760206040516312c000008152f35b3461024a575f36600319011261024a5760206040516509184e72a0008152f35b3461024a575f36600319011261024a57602060405163258000008152f35b600435906001600160a01b038216820361024a57565b805482101561339f575f5260205f209060031b01905f90565b634e487b7160e01b5f52603260045260245ffd5b3461024a575f36600319011261024a57602060405160148152f35b5f546001600160a01b031633036133e157565b60405163118cdaa760e01b8152336004820152602490fd5b1561340057565b60405162461bcd60e51b815260206004820152602960248201527f55736572206d757374206265207265676973746572656420746f206465706f7360448201526834ba10333ab732399760b91b6064820152608490fd5b9190820180921161143157565b335f52600a60205261347c60ff60405f2054166133f9565b335f52600660205260405f20613493348254613457565b90556040513481527f2da466a7b24304f47e87fa2e1e5a81b9831ce54fec19055ce277ca2f39ba42c460203392a2565b5f1981146114315760010190565b8181106134dc575050565b5f81556001016134d1565b9190601f81116134f657505050565b613232925f5260205f20906020601f840160051c83019310613520575b601f0160051c01906134d1565b9091508190613513565b1561353157565b60405162461bcd60e51b815260206004820152602960248201527f576974686472617720616d6f756e74206d7573742062652067726561746572206044820152687468616e207a65726f60b81b6064820152608490fd5b9190820391821161143157565b1561359c57565b60405162461bcd60e51b8152602060048201526011602482015270092dcecc2d8d2c84092a08ca640d0c2e6d607b1b6044820152606490fd5b908082146136ab576135e781546131be565b906001600160401b038211610ef957819061360c8261360686546131be565b866134e7565b5f90601f8311600114613640575f92613635575b50508160011b915f199060031b1c1916179055565b015490505f80613620565b81526020808220858352818320935090601f1985169083905b82821061369257505090846001959493921061367a575b505050811b019055565b01545f1960f88460031b161c191690555f8080613670565b8495819295850154815560018091019601940190613659565b5050565b91906113c6578082036136c0575050565b6007816136ce8293856135d5565b6136de60018201600186016135d5565b6136ee60028201600286016135d5565b600381015460038501556004840160018060a01b036004830154166001600160601b0360a01b8254161790556005810154600585015561374460ff600683015416600686019060ff801983541691151516179055565b0154910155565b6137639060206040519282848094519384920161319d565b810103902090565b1561377257565b60405162461bcd60e51b815260206004820152602960248201527f4f6e6c79207468652075706c6f616465722063616e20706572666f726d20746860448201526834b99030b1ba34b7b760b91b6064820152608490fd5b156137d057565b60405162461bcd60e51b8152602060048201526013602482015272119a5b1948191bd95cc81b9bdd08195e1a5cdd606a1b6044820152606490fd5b5f92918154613819816131be565b9260019180831690811561386f5750600114613836575b50505050565b9091929394505f52602090815f20905f915b85831061385e575050505001905f808080613830565b805485840152918301918101613848565b60ff191684525050508115159091020191505f808080613830565b90815491600160401b831015610ef9578261142591600161323295018155613386565b6138b781546131be565b90816138c1575050565b81601f5f93116001146138d2575055565b9080839182526138f1601f60208420940160051c8401600185016134d1565b555556feb51b16cb4103a8ce441e52afe5cfabab49df83ba6b570adcde7724f975bdf7d02b4eb1aa816aa5f68d796a418d90e0877c28a8ebc9c2332f1f96b308f7744738a2646970667358221220f89468213de1f041710441a116a3058f3beb2242ca8772a3283e4804f2c2d1a864736f6c63430008140033",
  "immutableReferences": {},
  "source": "// SPDX-License-Identifier: MIT\npragma solidity ^0.8.20;\n\nimport \"@openzeppelin/contracts/access/Ownable.sol\";\nimport \"@openzeppelin/contracts/utils/Strings.sol\"; // For converting uint to string for referral code\n\ncontract DShareStorage is Ownable {\n    using Strings for uint256; // Use Strings library for uint256 conversions\n\n    // --- Constants and Configuration ---\n    uint256 public constant MAX_STORAGE_1GB_BYTES = 1 * 1024 * 1024 * 1024; // 1 GB\n    uint256 public constant MAX_STORAGE_5GB_BYTES = 5 * 1024 * 1024 * 1024; // 5 GB\n    uint256 public constant UPGRADE_TO_5GB_PRICE = 0.1 ether;\n    uint256 public constant SHARE_FEE = 10000000000000; // 0.00001 ETH (10,000,000,000,000 wei)\n    uint256 public constant MIN_DOWNLOAD_PRICE = 10000000000000; // 0.00001 ETH\n    uint256 public constant MAX_DOWNLOAD_PRICE = 0.01 ether; // 0.01 ETH\n    uint256 public constant OWNER_DOWNLOAD_FEE_PERCENTAGE = 20; // 20% for owner\n\n    uint256 public constant UPLOAD_POINTS = 3;\n    uint256 public constant SHARE_POINTS = 10;\n    uint256 public constant DOWNLOAD_POINTS = 20;\n    uint256 public constant REFERRAL_POINTS = 1000; // Points for both referrer and referred\n\n    uint256 public constant MAX_SINGLE_UPLOAD_1GB_BYTES = 300 * 1024 * 1024; // 300 MB\n    uint256 public constant MAX_SINGLE_UPLOAD_5GB_BYTES = 600 * 1024 * 1024; // 600 MB\n    uint256 public constant MAX_SINGLE_SHARE_1GB_BYTES = 300 * 1024 * 1024; // 300 MB\n    uint256 public constant MAX_SINGLE_SHARE_5GB_BYTES = 600 * 1024 * 1024; // 600 MB\n    uint256 public constant MAX_SHARE_POINTS_THRESHOLD_BYTES = 200 * 1024 * 1024; // 200 MB for 10 points\n\n    // --- Structs ---\n    struct File {\n        string name;\n        string ipfsHash; // Content Identifier from IPFS\n        string fileType; // e.g., \"image/jpeg\", \"video/mp4\", \"application/pdf\"\n        uint256 size; // Size in bytes\n        address uploader;\n        uint256 uploadTime;\n        bool isPublic;\n        uint256 downloadPrice; // In wei\n    }\n\n    // --- State Variables ---\n    mapping(address => File[]) public userFiles; // Stores files uploaded by a user\n    mapping(string => File) public filesByHash; // Maps IPFS hash to File struct for quick lookup\n    mapping(address => uint256) public userStorageUsed; // Tracks current storage used by each user\n    mapping(address => uint256) public userStorageLimit; // Tracks storage limit for each user\n    mapping(address => uint256) public userPoints; // Tracks points for each user\n    mapping(address => uint256) public userBalances; // Tracks Sepolia ETH balance held by the contract for each user\n\n    // --- Referral System State Variables ---\n    mapping(address => string) public userReferralCode; // User address => generated code\n    mapping(string => address) public referralCodeToUser; // Code => User address (the referrer)\n    mapping(address => uint256) public userReferralCount; // User address => count of referred users\n    mapping(address => bool) public isRegistered; // Tracks if a user has gone through initial registration process\n\n    uint256 private _referralCodeSalt = 0; // To help generate unique-ish codes\n\n    // --- Events ---\n    event Deposited(address indexed user, uint256 amount);\n    event Withdrawn(address indexed user, uint256 amount);\n    event StorageLimitUpgraded(address indexed user, uint256 newLimit, uint256 pricePaid);\n    event FileUploaded(address indexed uploader, string indexed ipfsHash, string name, uint256 size, uint256 pointsEarned);\n    event FileShared(address indexed sender, address indexed receiver, string indexed ipfsHash, uint256 feePaid, uint256 pointsEarned);\n    event FileVisibilityChanged(string indexed ipfsHash, bool isPublic, uint256 newPrice);\n    event FilePurchased(string indexed ipfsHash, address indexed purchaser, address indexed uploader, uint256 amountPaid, uint256 pointsEarned);\n    event FileDeleted(address indexed deleter, string indexed ipfsHash, uint256 sizeFreed);\n    event PointsEarned(address indexed user, uint256 points, string reason);\n    event FeeCollected(address indexed collector, uint256 amount, string feeType); // New event for clarity\n\n    // --- New Referral Events ---\n    event UserRegistered(address indexed newUser, address indexed referrer, uint256 pointsAwarded);\n    event ReferralCodeGenerated(address indexed user, string code);\n    event ReferralCountUpdated(address indexed referrer, uint256 newCount); // For referral leaderboard\n    event PointsLeaderboardUpdate(address indexed user, uint256 totalPoints); // For point leaderboard\n\n    // --- Constructor ---\n    constructor() Ownable(msg.sender) {}\n\n    // --- Fallback and Receive functions ---\n    receive() external payable {\n        // User must be registered to deposit via direct ETH transfer\n        require(isRegistered[msg.sender], \"User must be registered to deposit funds.\");\n        userBalances[msg.sender] += msg.value; // Use += for clarity\n        emit Deposited(msg.sender, msg.value);\n    }\n\n    fallback() external payable {\n        // User must be registered to deposit via direct ETH transfer\n        require(isRegistered[msg.sender], \"User must be registered to deposit funds.\");\n        userBalances[msg.sender] += msg.value; // Use += for clarity\n        emit Deposited(msg.sender, msg.value);\n    }\n\n    // --- Modifiers ---\n    modifier isValidFileHash(string memory _ipfsHash) {\n        require(bytes(_ipfsHash).length > 0, \"Invalid IPFS hash\");\n        _;\n    }\n\n    modifier onlyUploader(string memory _ipfsHash) {\n        require(filesByHash[_ipfsHash].uploader == msg.sender, \"Only the uploader can perform this action\");\n        _;\n    }\n\n    // --- Referral System Functions ---\n\n    /**\n     * @dev Allows a new user to register, optionally with a referral code.\n     * @param _referralCode The referral code used by the new user (empty string if none).\n     * If valid, both referrer and referred gain REFERRAL_POINTS.\n     */\n    function registerUser(string memory _referralCode) public {\n        require(!isRegistered[msg.sender], \"User already registered\");\n\n        isRegistered[msg.sender] = true;\n        userStorageLimit[msg.sender] = MAX_STORAGE_1GB_BYTES; // Set initial storage limit upon registration\n\n        address referrerAddress = address(0);\n        uint256 pointsToAward = 0; // Initialize points to 0 for the newUser\n\n        // Only attempt to process referral if a code is provided and it's valid\n        if (bytes(_referralCode).length > 0) {\n            referrerAddress = referralCodeToUser[_referralCode];\n            require(referrerAddress != address(0), \"Invalid referral code\"); // Code must exist\n            require(referrerAddress != msg.sender, \"Cannot refer yourself\"); // Cannot refer self\n            require(isRegistered[referrerAddress], \"Referrer must be a registered user.\"); // Referrer must also be registered\n\n            pointsToAward = REFERRAL_POINTS;\n\n            // Award points to referred user (msg.sender)\n            userPoints[msg.sender] += pointsToAward; // Use += for clarity\n            emit PointsEarned(msg.sender, pointsToAward, \"Referral (Referred)\");\n            emit PointsLeaderboardUpdate(msg.sender, userPoints[msg.sender]);\n\n            // Award points to referrer\n            userPoints[referrerAddress] += pointsToAward; // Use += for clarity\n            emit PointsEarned(referrerAddress, pointsToAward, \"Referral (Referrer)\");\n            emit PointsLeaderboardUpdate(referrerAddress, userPoints[referrerAddress]);\n\n            // Increment referrer's referral count\n            userReferralCount[referrerAddress] += 1; // Use += for clarity\n            emit ReferralCountUpdated(referrerAddress, userReferralCount[referrerAddress]);\n        }\n\n        emit UserRegistered(msg.sender, referrerAddress, pointsToAward);\n    }\n\n    /**\n     * @dev Allows a registered user to generate their unique 7-digit referral code.\n     * @return The generated referral code.\n     */\n    function generateReferralCode() public returns (string memory) {\n        require(isRegistered[msg.sender], \"User must be registered to generate a referral code\");\n        require(bytes(userReferralCode[msg.sender]).length == 0, \"You already have a referral code\");\n\n        string memory generatedCode;\n        bool unique = false;\n        uint256 attempts = 0;\n\n        // Loop to ensure uniqueness for generated 7-digit code\n        while (!unique && attempts < 10) { // Limit attempts to avoid excessive gas usage\n            // Combine various unique and volatile data to create a seed for the code\n            uint256 seed = uint256(keccak256(abi.encodePacked(\n                block.timestamp,\n                msg.sender,\n                tx.origin,\n                block.prevrandao, // FIX: Changed block.difficulty to block.prevrandao\n                block.number,\n                _referralCodeSalt++ // Increment salt to get a new seed each attempt\n            )));\n\n            // Extract a 7-digit number (0 to 9,999,999)\n            uint256 codeNum = seed % 10_000_000;\n\n            // Convert to string and pad with leading zeros to ensure it's always 7 characters\n            generatedCode = codeNum.toString();\n            while (bytes(generatedCode).length < 7) {\n                generatedCode = string(abi.encodePacked(\"0\", generatedCode));\n            }\n\n            if (referralCodeToUser[generatedCode] == address(0)) {\n                unique = true;\n            }\n            attempts++;\n        }\n\n        require(unique, \"Could not generate a unique referral code after multiple attempts. Please try again.\");\n\n        userReferralCode[msg.sender] = generatedCode;\n        referralCodeToUser[generatedCode] = msg.sender;\n\n        emit ReferralCodeGenerated(msg.sender, generatedCode);\n        return generatedCode;\n    }\n\n    /**\n     * @dev Returns the referral code for a given user.\n     * @param _user The address of the user.\n     * @return The referral code string.\n     */\n    function getReferralCode(address _user) public view returns (string memory) {\n        return userReferralCode[_user];\n    }\n\n    /**\n     * @dev Returns the number of users referred by a given user.\n     * @param _user The address of the user (referrer).\n     * @return The referral count.\n     */\n    function getReferralCount(address _user) public view returns (uint256) {\n        return userReferralCount[_user];\n    }\n\n    // --- User Deposit and Withdrawal ---\n    function deposit() public payable {\n        require(isRegistered[msg.sender], \"User must be registered to deposit funds.\");\n        require(msg.value > 0, \"Deposit amount must be greater than zero\");\n        userBalances[msg.sender] += msg.value;\n        emit Deposited(msg.sender, msg.value);\n    }\n\n    function withdraw(uint256 _amount) public {\n        require(isRegistered[msg.sender], \"User must be registered to withdraw funds.\");\n        require(userBalances[msg.sender] >= _amount, \"Insufficient balance\");\n        require(_amount > 0, \"Withdraw amount must be greater than zero\");\n\n        userBalances[msg.sender] -= _amount; // Use -= for clarity\n        payable(msg.sender).transfer(_amount);\n        emit Withdrawn(msg.sender, _amount);\n    }\n\n    function getUserBalance() public view returns (uint256) {\n        return userBalances[msg.sender];\n    }\n\n    // --- Storage Upgrade ---\n    function upgradeStorage() public {\n        require(isRegistered[msg.sender], \"User must be registered to upgrade storage.\");\n        require(userStorageLimit[msg.sender] == MAX_STORAGE_1GB_BYTES, \"You are already on the 5GB plan or higher\");\n        require(userBalances[msg.sender] >= UPGRADE_TO_5GB_PRICE, \"Insufficient Sepolia ETH balance for upgrade\");\n\n        userBalances[msg.sender] -= UPGRADE_TO_5GB_PRICE; // Use -= for clarity\n        // The upgrade fee is implicitly kept by the contract (adds to address(this).balance)\n        // If you want the owner to directly collect this too, you'd add:\n        // userBalances[owner()] += UPGRADE_TO_5GB_PRICE;\n        // For now, it remains in the contract's overall balance, collectable by owner via withdrawContractFees if implemented.\n\n        userStorageLimit[msg.sender] = MAX_STORAGE_5GB_BYTES;\n        emit StorageLimitUpgraded(msg.sender, MAX_STORAGE_5GB_BYTES, UPGRADE_TO_5GB_PRICE);\n    }\n\n    // --- File Upload ---\n    function uploadFile(string memory _name, string memory _ipfsHash, string memory _fileType, uint256 _size)\n        public\n        isValidFileHash(_ipfsHash)\n    {\n        require(isRegistered[msg.sender], \"User must be registered to upload files.\");\n        require(filesByHash[_ipfsHash].uploader == address(0), \"File with this hash already exists\");\n\n        // userStorageLimit[msg.sender] is guaranteed to be set if isRegistered is true\n        require(userStorageUsed[msg.sender] + _size <= userStorageLimit[msg.sender], \"Storage limit exceeded\");\n\n        if (userStorageLimit[msg.sender] == MAX_STORAGE_1GB_BYTES) {\n            require(_size <= MAX_SINGLE_UPLOAD_1GB_BYTES, \"File size exceeds 1GB plan's single upload limit (300MB)\");\n        } else { // 5GB plan\n            require(_size <= MAX_SINGLE_UPLOAD_5GB_BYTES, \"File size exceeds 5GB plan's single upload limit (600MB)\");\n        }\n\n        filesByHash[_ipfsHash] = File({\n            name: _name,\n            ipfsHash: _ipfsHash,\n            fileType: _fileType,\n            size: _size,\n            uploader: msg.sender,\n            uploadTime: block.timestamp,\n            isPublic: false, // Default to private\n            downloadPrice: 0 // Default no price\n        });\n        userFiles[msg.sender].push(filesByHash[_ipfsHash]); // Store a copy for user's uploaded list\n        userStorageUsed[msg.sender] += _size; // Use += for clarity\n        userPoints[msg.sender] += UPLOAD_POINTS; // Use += for clarity\n        emit PointsLeaderboardUpdate(msg.sender, userPoints[msg.sender]); // Update for leaderboard\n\n        emit FileUploaded(msg.sender, _ipfsHash, _name, _size, UPLOAD_POINTS);\n        emit PointsEarned(msg.sender, UPLOAD_POINTS, \"File Upload\");\n    }\n\n    // --- File Sharing ---\n    function shareFile(string memory _ipfsHash, address _receiver)\n        public\n        isValidFileHash(_ipfsHash)\n        onlyUploader(_ipfsHash)\n    {\n        require(isRegistered[msg.sender], \"User must be registered to share files.\");\n        require(_receiver != address(0) && _receiver != msg.sender, \"Invalid receiver address\");\n        require(userBalances[msg.sender] >= SHARE_FEE, \"Insufficient Sepolia ETH balance for sharing fee\");\n        require(isRegistered[_receiver], \"Receiver must be a registered user to receive shared files.\");\n\n        File storage file = filesByHash[_ipfsHash];\n        require(file.uploader != address(0), \"File does not exist\"); // Ensure file exists\n\n        if (userStorageLimit[msg.sender] == MAX_STORAGE_1GB_BYTES) {\n            require(file.size <= MAX_SINGLE_SHARE_1GB_BYTES, \"File size exceeds 1GB plan's single share limit (300MB)\");\n        } else { // 5GB plan\n            require(file.size <= MAX_SINGLE_SHARE_5GB_BYTES, \"File size exceeds 5GB plan's single share limit (600MB)\");\n        }\n\n        userBalances[msg.sender] -= SHARE_FEE; // Deduct fee from sender\n        userBalances[owner()] += SHARE_FEE; // Owner collects the full share fee\n        emit FeeCollected(owner(), SHARE_FEE, \"Share Fee\"); // Emit new event for transparency\n\n        require(userStorageUsed[_receiver] + file.size <= userStorageLimit[_receiver], \"Receiver's storage limit will be exceeded\");\n\n        // Add the file to the receiver's list if not already present\n        bool found = false;\n        for (uint i = 0; i < userFiles[_receiver].length; i++) {\n            if (keccak256(abi.encodePacked(userFiles[_receiver][i].ipfsHash)) == keccak256(abi.encodePacked(_ipfsHash))) {\n                found = true;\n                break;\n            }\n        }\n        if (!found) {\n            userFiles[_receiver].push(file);\n            userStorageUsed[_receiver] += file.size; // Use += for clarity\n        }\n\n        uint256 points = 0;\n        if (file.size <= MAX_SHARE_POINTS_THRESHOLD_BYTES) { // 0-200MB range\n            points = SHARE_POINTS;\n        }\n        userPoints[msg.sender] += points; // Use += for clarity\n        emit PointsLeaderboardUpdate(msg.sender, userPoints[msg.sender]); // Update for leaderboard\n\n        emit FileShared(msg.sender, _receiver, _ipfsHash, SHARE_FEE, points);\n        emit PointsEarned(msg.sender, points, \"File Share\");\n    }\n\n    // --- File Visibility and Pricing (Business Model) ---\n    function setFileVisibilityAndPrice(string memory _ipfsHash, bool _isPublic, uint256 _price)\n        public\n        isValidFileHash(_ipfsHash)\n        onlyUploader(_ipfsHash)\n    {\n        require(isRegistered[msg.sender], \"User must be registered to set file visibility and price.\");\n        require(_price >= MIN_DOWNLOAD_PRICE && _price <= MAX_DOWNLOAD_PRICE, \"Download price must be between 0.00001 ETH and 0.01 ETH\");\n        File storage file = filesByHash[_ipfsHash];\n        file.isPublic = _isPublic;\n        file.downloadPrice = _price;\n        emit FileVisibilityChanged(_ipfsHash, _isPublic, _price);\n    }\n\n    // --- File Download (Purchase) ---\n    function purchaseFile(string memory _ipfsHash) public isValidFileHash(_ipfsHash) {\n        require(isRegistered[msg.sender], \"User must be registered to purchase files.\");\n        File storage file = filesByHash[_ipfsHash];\n        require(file.uploader != address(0), \"File does not exist\");\n        require(file.isPublic, \"File is not public and cannot be purchased\");\n        require(msg.sender != file.uploader, \"Uploader cannot purchase their own file\");\n        require(userBalances[msg.sender] >= file.downloadPrice, \"Insufficient Sepolia ETH balance for download\");\n        require(isRegistered[file.uploader], \"Uploader is not a registered user.\"); // Ensure uploader is registered\n\n        // Calculate the owner's cut (20%) and uploader's cut (80%)\n        uint256 totalDownloadPrice = file.downloadPrice;\n        uint256 ownerCut = (totalDownloadPrice * OWNER_DOWNLOAD_FEE_PERCENTAGE) / 100;\n        uint256 uploaderCut = totalDownloadPrice - ownerCut; // Remaining 80%\n\n        // Deduct full payment from purchaser's internal balance\n        userBalances[msg.sender] -= totalDownloadPrice; // Use -= for clarity\n\n        // Add owner's cut to owner's internal balance\n        userBalances[owner()] += ownerCut;\n        emit FeeCollected(owner(), ownerCut, \"Download Fee (Owner's Cut)\"); // Emit new event for transparency\n\n        // Add uploader's cut to uploader's internal balance\n        userBalances[file.uploader] += uploaderCut;\n        // No explicit event for uploader's income here, but FilePurchased covers it.\n\n        // Purchaser's storage limit is set during registerUser\n        require(userStorageUsed[msg.sender] + file.size <= userStorageLimit[msg.sender], \"Your storage limit will be exceeded by downloading this file.\");\n\n        // Add the file to the purchaser's list if not already present\n        bool found = false;\n        for (uint i = 0; i < userFiles[msg.sender].length; i++) {\n            if (keccak256(abi.encodePacked(userFiles[msg.sender][i].ipfsHash)) == keccak256(abi.encodePacked(_ipfsHash))) {\n                found = true;\n                break;\n            }\n        }\n        if (!found) {\n            userFiles[msg.sender].push(file);\n            userStorageUsed[msg.sender] += file.size; // Use += for clarity\n        }\n\n        userPoints[msg.sender] += DOWNLOAD_POINTS; // Use += for clarity\n        emit PointsLeaderboardUpdate(msg.sender, userPoints[msg.sender]); // Update for leaderboard\n\n        emit FilePurchased(_ipfsHash, msg.sender, file.uploader, totalDownloadPrice, DOWNLOAD_POINTS);\n        emit PointsEarned(msg.sender, DOWNLOAD_POINTS, \"File Download\");\n    }\n\n    // --- File Deletion ---\n    function deleteFile(string memory _ipfsHash) public isValidFileHash(_ipfsHash) onlyUploader(_ipfsHash) {\n        require(isRegistered[msg.sender], \"User must be registered to delete files.\");\n        File storage file = filesByHash[_ipfsHash];\n        uint256 sizeToFree = file.size;\n        address uploaderAddress = file.uploader;\n\n        delete filesByHash[_ipfsHash];\n\n        uint256 index = 0;\n        bool found = false;\n        for (uint i = 0; i < userFiles[uploaderAddress].length; i++) {\n            if (keccak256(abi.encodePacked(userFiles[uploaderAddress][i].ipfsHash)) == keccak256(abi.encodePacked(_ipfsHash))) {\n                index = i;\n                found = true;\n                break;\n            }\n        }\n\n        if (found) {\n            // Replace the deleted element with the last element and pop the last element\n            if (index < userFiles[uploaderAddress].length - 1) {\n                userFiles[uploaderAddress][index] = userFiles[uploaderAddress][userFiles[uploaderAddress].length - 1];\n            }\n            userFiles[uploaderAddress].pop();\n        }\n\n        // Reduce storage used by the uploader\n        userStorageUsed[uploaderAddress] -= sizeToFree; // Use -= for clarity\n\n        emit FileDeleted(msg.sender, _ipfsHash, sizeToFree);\n    }\n\n    // --- View Functions ---\n    function getMyFiles() public view returns (File[] memory) {\n        require(isRegistered[msg.sender], \"User must be registered to view files.\");\n        return userFiles[msg.sender];\n    }\n\n    function getFileByHash(string memory _ipfsHash) public view isValidFileHash(_ipfsHash) returns (string memory, string memory, uint256, address, uint256, bool, uint256) {\n        File storage file = filesByHash[_ipfsHash];\n        require(file.uploader != address(0), \"File does not exist\"); // Check if file exists\n        return (file.name, file.fileType, file.size, file.uploader, file.uploadTime, file.isPublic, file.downloadPrice);\n    }\n\n    function getUserStorageInfo(address _user) public view returns (uint256 currentUsed, uint256 limit) {\n        return (userStorageUsed[_user], userStorageLimit[_user]);\n    }\n\n    function getMyPoints() public view returns (uint256) {\n        return userPoints[msg.sender];\n    }\n\n    // --- Owner Functions ---\n    // Owner can withdraw accumulated fees (share fees, upgrade fees) from the contract balance\n    // Funds from file purchases are directly transferred between userBalances, not contract balance\n    function withdrawContractFees(uint256 _amount) public onlyOwner {\n        require(address(this).balance >= _amount, \"Insufficient contract balance to withdraw\");\n        require(_amount > 0, \"Withdraw amount must be greater than zero\");\n        payable(owner()).transfer(_amount);\n    }\n}",
  "sourcePath": "/workspaces/Dshare/Dshare/contracts/DShareStorage.sol",
  "compiler": {
    "name": "solc",
    "version": "0.8.20+commit.a1b79de6.Emscripten.clang"
  },
  "schemaVersion": "3.4.16",
  "updatedAt": "2025-06-28T14:40:49.855Z",
  "networkType": "ethereum",
  "devdoc": {
    "errors": {
      "OwnableInvalidOwner(address)": [
        {
          "details": "The owner is not a valid owner account. (eg. `address(0)`)"
        }
      ],
      "OwnableUnauthorizedAccount(address)": [
        {
          "details": "The caller account is not authorized to perform an operation."
        }
      ]
    },
    "kind": "dev",
    "methods": {
      "generateReferralCode()": {
        "details": "Allows a registered user to generate their unique 7-digit referral code.",
        "returns": {
          "_0": "The generated referral code."
        }
      },
      "getReferralCode(address)": {
        "details": "Returns the referral code for a given user.",
        "params": {
          "_user": "The address of the user."
        },
        "returns": {
          "_0": "The referral code string."
        }
      },
      "getReferralCount(address)": {
        "details": "Returns the number of users referred by a given user.",
        "params": {
          "_user": "The address of the user (referrer)."
        },
        "returns": {
          "_0": "The referral count."
        }
      },
      "owner()": {
        "details": "Returns the address of the current owner."
      },
      "registerUser(string)": {
        "details": "Allows a new user to register, optionally with a referral code.",
        "params": {
          "_referralCode": "The referral code used by the new user (empty string if none). If valid, both referrer and referred gain REFERRAL_POINTS."
        }
      },
      "renounceOwnership()": {
        "details": "Leaves the contract without owner. It will not be possible to call `onlyOwner` functions. Can only be called by the current owner. NOTE: Renouncing ownership will leave the contract without an owner, thereby disabling any functionality that is only available to the owner."
      },
      "transferOwnership(address)": {
        "details": "Transfers ownership of the contract to a new account (`newOwner`). Can only be called by the current owner."
      }
    },
    "version": 1
  },
  "userdoc": {
    "kind": "user",
    "methods": {},
    "version": 1
  }
}