{
  "contractName": "DShareStorage",
  "abi": [
    {
      "inputs": [],
      "stateMutability": "nonpayable",
      "type": "constructor"
    },
    {
      "inputs": [
        {
          "internalType": "address",
          "name": "owner",
          "type": "address"
        }
      ],
      "name": "OwnableInvalidOwner",
      "type": "error"
    },
    {
      "inputs": [
        {
          "internalType": "address",
          "name": "account",
          "type": "address"
        }
      ],
      "name": "OwnableUnauthorizedAccount",
      "type": "error"
    },
    {
      "anonymous": false,
      "inputs": [
        {
          "indexed": true,
          "internalType": "address",
          "name": "user",
          "type": "address"
        },
        {
          "indexed": false,
          "internalType": "uint256",
          "name": "amount",
          "type": "uint256"
        }
      ],
      "name": "Deposited",
      "type": "event"
    },
    {
      "anonymous": false,
      "inputs": [
        {
          "indexed": true,
          "internalType": "address",
          "name": "collector",
          "type": "address"
        },
        {
          "indexed": false,
          "internalType": "uint256",
          "name": "amount",
          "type": "uint256"
        },
        {
          "indexed": false,
          "internalType": "string",
          "name": "feeType",
          "type": "string"
        }
      ],
      "name": "FeeCollected",
      "type": "event"
    },
    {
      "anonymous": false,
      "inputs": [
        {
          "indexed": true,
          "internalType": "address",
          "name": "deleter",
          "type": "address"
        },
        {
          "indexed": true,
          "internalType": "string",
          "name": "ipfsHash",
          "type": "string"
        },
        {
          "indexed": false,
          "internalType": "uint256",
          "name": "sizeFreed",
          "type": "uint256"
        }
      ],
      "name": "FileDeleted",
      "type": "event"
    },
    {
      "anonymous": false,
      "inputs": [
        {
          "indexed": true,
          "internalType": "string",
          "name": "ipfsHash",
          "type": "string"
        },
        {
          "indexed": true,
          "internalType": "address",
          "name": "purchaser",
          "type": "address"
        },
        {
          "indexed": true,
          "internalType": "address",
          "name": "uploader",
          "type": "address"
        },
        {
          "indexed": false,
          "internalType": "uint256",
          "name": "amountPaid",
          "type": "uint256"
        },
        {
          "indexed": false,
          "internalType": "uint256",
          "name": "pointsEarned",
          "type": "uint256"
        }
      ],
      "name": "FilePurchased",
      "type": "event"
    },
    {
      "anonymous": false,
      "inputs": [
        {
          "indexed": true,
          "internalType": "address",
          "name": "sender",
          "type": "address"
        },
        {
          "indexed": true,
          "internalType": "address",
          "name": "receiver",
          "type": "address"
        },
        {
          "indexed": true,
          "internalType": "string",
          "name": "ipfsHash",
          "type": "string"
        },
        {
          "indexed": false,
          "internalType": "uint256",
          "name": "feePaid",
          "type": "uint256"
        },
        {
          "indexed": false,
          "internalType": "uint256",
          "name": "pointsEarned",
          "type": "uint256"
        }
      ],
      "name": "FileShared",
      "type": "event"
    },
    {
      "anonymous": false,
      "inputs": [
        {
          "indexed": true,
          "internalType": "address",
          "name": "uploader",
          "type": "address"
        },
        {
          "indexed": true,
          "internalType": "string",
          "name": "ipfsHash",
          "type": "string"
        },
        {
          "indexed": false,
          "internalType": "string",
          "name": "name",
          "type": "string"
        },
        {
          "indexed": false,
          "internalType": "uint256",
          "name": "size",
          "type": "uint256"
        },
        {
          "indexed": false,
          "internalType": "uint256",
          "name": "pointsEarned",
          "type": "uint256"
        }
      ],
      "name": "FileUploaded",
      "type": "event"
    },
    {
      "anonymous": false,
      "inputs": [
        {
          "indexed": true,
          "internalType": "string",
          "name": "ipfsHash",
          "type": "string"
        },
        {
          "indexed": false,
          "internalType": "bool",
          "name": "isPublic",
          "type": "bool"
        },
        {
          "indexed": false,
          "internalType": "uint256",
          "name": "newPrice",
          "type": "uint256"
        }
      ],
      "name": "FileVisibilityChanged",
      "type": "event"
    },
    {
      "anonymous": false,
      "inputs": [
        {
          "indexed": true,
          "internalType": "address",
          "name": "previousOwner",
          "type": "address"
        },
        {
          "indexed": true,
          "internalType": "address",
          "name": "newOwner",
          "type": "address"
        }
      ],
      "name": "OwnershipTransferred",
      "type": "event"
    },
    {
      "anonymous": false,
      "inputs": [
        {
          "indexed": true,
          "internalType": "address",
          "name": "user",
          "type": "address"
        },
        {
          "indexed": false,
          "internalType": "uint256",
          "name": "points",
          "type": "uint256"
        },
        {
          "indexed": false,
          "internalType": "string",
          "name": "reason",
          "type": "string"
        }
      ],
      "name": "PointsEarned",
      "type": "event"
    },
    {
      "anonymous": false,
      "inputs": [
        {
          "indexed": true,
          "internalType": "address",
          "name": "user",
          "type": "address"
        },
        {
          "indexed": false,
          "internalType": "uint256",
          "name": "totalPoints",
          "type": "uint256"
        }
      ],
      "name": "PointsLeaderboardUpdate",
      "type": "event"
    },
    {
      "anonymous": false,
      "inputs": [
        {
          "indexed": true,
          "internalType": "string",
          "name": "ipfsHash",
          "type": "string"
        }
      ],
      "name": "PublicFileAdded",
      "type": "event"
    },
    {
      "anonymous": false,
      "inputs": [
        {
          "indexed": true,
          "internalType": "string",
          "name": "ipfsHash",
          "type": "string"
        }
      ],
      "name": "PublicFileRemoved",
      "type": "event"
    },
    {
      "anonymous": false,
      "inputs": [
        {
          "indexed": true,
          "internalType": "address",
          "name": "user",
          "type": "address"
        },
        {
          "indexed": false,
          "internalType": "string",
          "name": "code",
          "type": "string"
        }
      ],
      "name": "ReferralCodeGenerated",
      "type": "event"
    },
    {
      "anonymous": false,
      "inputs": [
        {
          "indexed": true,
          "internalType": "address",
          "name": "referrer",
          "type": "address"
        },
        {
          "indexed": false,
          "internalType": "uint256",
          "name": "newCount",
          "type": "uint256"
        }
      ],
      "name": "ReferralCountUpdated",
      "type": "event"
    },
    {
      "anonymous": false,
      "inputs": [
        {
          "indexed": true,
          "internalType": "address",
          "name": "user",
          "type": "address"
        },
        {
          "indexed": false,
          "internalType": "uint256",
          "name": "newLimit",
          "type": "uint256"
        },
        {
          "indexed": false,
          "internalType": "uint256",
          "name": "pricePaid",
          "type": "uint256"
        }
      ],
      "name": "StorageLimitUpgraded",
      "type": "event"
    },
    {
      "anonymous": false,
      "inputs": [
        {
          "indexed": true,
          "internalType": "address",
          "name": "newUser",
          "type": "address"
        },
        {
          "indexed": false,
          "internalType": "string",
          "name": "profileCID",
          "type": "string"
        }
      ],
      "name": "UserRegistered",
      "type": "event"
    },
    {
      "anonymous": false,
      "inputs": [
        {
          "indexed": true,
          "internalType": "address",
          "name": "user",
          "type": "address"
        },
        {
          "indexed": false,
          "internalType": "uint256",
          "name": "amount",
          "type": "uint256"
        }
      ],
      "name": "Withdrawn",
      "type": "event"
    },
    {
      "stateMutability": "payable",
      "type": "fallback",
      "payable": true
    },
    {
      "inputs": [],
      "name": "DOWNLOAD_POINTS",
      "outputs": [
        {
          "internalType": "uint256",
          "name": "",
          "type": "uint256"
        }
      ],
      "stateMutability": "view",
      "type": "function",
      "constant": true
    },
    {
      "inputs": [],
      "name": "MAX_DOWNLOAD_PRICE",
      "outputs": [
        {
          "internalType": "uint256",
          "name": "",
          "type": "uint256"
        }
      ],
      "stateMutability": "view",
      "type": "function",
      "constant": true
    },
    {
      "inputs": [],
      "name": "MAX_SHARE_POINTS_THRESHOLD",
      "outputs": [
        {
          "internalType": "uint256",
          "name": "",
          "type": "uint256"
        }
      ],
      "stateMutability": "view",
      "type": "function",
      "constant": true
    },
    {
      "inputs": [],
      "name": "MAX_SINGLE_SHARE_1GB_BYTES",
      "outputs": [
        {
          "internalType": "uint256",
          "name": "",
          "type": "uint256"
        }
      ],
      "stateMutability": "view",
      "type": "function",
      "constant": true
    },
    {
      "inputs": [],
      "name": "MAX_SINGLE_SHARE_5GB_BYTES",
      "outputs": [
        {
          "internalType": "uint256",
          "name": "",
          "type": "uint256"
        }
      ],
      "stateMutability": "view",
      "type": "function",
      "constant": true
    },
    {
      "inputs": [],
      "name": "MAX_SINGLE_UPLOAD_1GB_BYTES",
      "outputs": [
        {
          "internalType": "uint256",
          "name": "",
          "type": "uint256"
        }
      ],
      "stateMutability": "view",
      "type": "function",
      "constant": true
    },
    {
      "inputs": [],
      "name": "MAX_SINGLE_UPLOAD_5GB_BYTES",
      "outputs": [
        {
          "internalType": "uint256",
          "name": "",
          "type": "uint256"
        }
      ],
      "stateMutability": "view",
      "type": "function",
      "constant": true
    },
    {
      "inputs": [],
      "name": "MAX_STORAGE_1GB_BYTES",
      "outputs": [
        {
          "internalType": "uint256",
          "name": "",
          "type": "uint256"
        }
      ],
      "stateMutability": "view",
      "type": "function",
      "constant": true
    },
    {
      "inputs": [],
      "name": "MAX_STORAGE_5GB_BYTES",
      "outputs": [
        {
          "internalType": "uint256",
          "name": "",
          "type": "uint256"
        }
      ],
      "stateMutability": "view",
      "type": "function",
      "constant": true
    },
    {
      "inputs": [],
      "name": "MIN_DOWNLOAD_PRICE",
      "outputs": [
        {
          "internalType": "uint256",
          "name": "",
          "type": "uint256"
        }
      ],
      "stateMutability": "view",
      "type": "function",
      "constant": true
    },
    {
      "inputs": [],
      "name": "OWNER_DOWNLOAD_FEE_PERCENT",
      "outputs": [
        {
          "internalType": "uint256",
          "name": "",
          "type": "uint256"
        }
      ],
      "stateMutability": "view",
      "type": "function",
      "constant": true
    },
    {
      "inputs": [],
      "name": "REFERRAL_POINTS",
      "outputs": [
        {
          "internalType": "uint256",
          "name": "",
          "type": "uint256"
        }
      ],
      "stateMutability": "view",
      "type": "function",
      "constant": true
    },
    {
      "inputs": [],
      "name": "REFERRAL_WINDOW",
      "outputs": [
        {
          "internalType": "uint256",
          "name": "",
          "type": "uint256"
        }
      ],
      "stateMutability": "view",
      "type": "function",
      "constant": true
    },
    {
      "inputs": [],
      "name": "SHARE_FEE",
      "outputs": [
        {
          "internalType": "uint256",
          "name": "",
          "type": "uint256"
        }
      ],
      "stateMutability": "view",
      "type": "function",
      "constant": true
    },
    {
      "inputs": [],
      "name": "SHARE_POINTS",
      "outputs": [
        {
          "internalType": "uint256",
          "name": "",
          "type": "uint256"
        }
      ],
      "stateMutability": "view",
      "type": "function",
      "constant": true
    },
    {
      "inputs": [],
      "name": "UPGRADE_TO_5GB_PRICE",
      "outputs": [
        {
          "internalType": "uint256",
          "name": "",
          "type": "uint256"
        }
      ],
      "stateMutability": "view",
      "type": "function",
      "constant": true
    },
    {
      "inputs": [],
      "name": "UPLOAD_POINTS",
      "outputs": [
        {
          "internalType": "uint256",
          "name": "",
          "type": "uint256"
        }
      ],
      "stateMutability": "view",
      "type": "function",
      "constant": true
    },
    {
      "inputs": [
        {
          "internalType": "uint256",
          "name": "",
          "type": "uint256"
        }
      ],
      "name": "_publicFiles",
      "outputs": [
        {
          "internalType": "string",
          "name": "name",
          "type": "string"
        },
        {
          "internalType": "string",
          "name": "ipfsHash",
          "type": "string"
        },
        {
          "internalType": "string",
          "name": "fileType",
          "type": "string"
        },
        {
          "internalType": "uint256",
          "name": "size",
          "type": "uint256"
        },
        {
          "internalType": "address",
          "name": "uploader",
          "type": "address"
        },
        {
          "internalType": "uint256",
          "name": "uploadTime",
          "type": "uint256"
        },
        {
          "internalType": "bool",
          "name": "isPublic",
          "type": "bool"
        },
        {
          "internalType": "uint256",
          "name": "downloadPrice",
          "type": "uint256"
        }
      ],
      "stateMutability": "view",
      "type": "function",
      "constant": true
    },
    {
      "inputs": [
        {
          "internalType": "string",
          "name": "",
          "type": "string"
        }
      ],
      "name": "filesByHash",
      "outputs": [
        {
          "internalType": "string",
          "name": "name",
          "type": "string"
        },
        {
          "internalType": "string",
          "name": "ipfsHash",
          "type": "string"
        },
        {
          "internalType": "string",
          "name": "fileType",
          "type": "string"
        },
        {
          "internalType": "uint256",
          "name": "size",
          "type": "uint256"
        },
        {
          "internalType": "address",
          "name": "uploader",
          "type": "address"
        },
        {
          "internalType": "uint256",
          "name": "uploadTime",
          "type": "uint256"
        },
        {
          "internalType": "bool",
          "name": "isPublic",
          "type": "bool"
        },
        {
          "internalType": "uint256",
          "name": "downloadPrice",
          "type": "uint256"
        }
      ],
      "stateMutability": "view",
      "type": "function",
      "constant": true
    },
    {
      "inputs": [
        {
          "internalType": "address",
          "name": "",
          "type": "address"
        }
      ],
      "name": "isRegistered",
      "outputs": [
        {
          "internalType": "bool",
          "name": "",
          "type": "bool"
        }
      ],
      "stateMutability": "view",
      "type": "function",
      "constant": true
    },
    {
      "inputs": [],
      "name": "owner",
      "outputs": [
        {
          "internalType": "address",
          "name": "",
          "type": "address"
        }
      ],
      "stateMutability": "view",
      "type": "function",
      "constant": true
    },
    {
      "inputs": [
        {
          "internalType": "address",
          "name": "",
          "type": "address"
        }
      ],
      "name": "profileCID",
      "outputs": [
        {
          "internalType": "string",
          "name": "",
          "type": "string"
        }
      ],
      "stateMutability": "view",
      "type": "function",
      "constant": true
    },
    {
      "inputs": [
        {
          "internalType": "string",
          "name": "",
          "type": "string"
        }
      ],
      "name": "referralCodeToUser",
      "outputs": [
        {
          "internalType": "address",
          "name": "",
          "type": "address"
        }
      ],
      "stateMutability": "view",
      "type": "function",
      "constant": true
    },
    {
      "inputs": [
        {
          "internalType": "address",
          "name": "",
          "type": "address"
        }
      ],
      "name": "referralRedeemed",
      "outputs": [
        {
          "internalType": "bool",
          "name": "",
          "type": "bool"
        }
      ],
      "stateMutability": "view",
      "type": "function",
      "constant": true
    },
    {
      "inputs": [
        {
          "internalType": "address",
          "name": "",
          "type": "address"
        }
      ],
      "name": "registeredAt",
      "outputs": [
        {
          "internalType": "uint256",
          "name": "",
          "type": "uint256"
        }
      ],
      "stateMutability": "view",
      "type": "function",
      "constant": true
    },
    {
      "inputs": [],
      "name": "renounceOwnership",
      "outputs": [],
      "stateMutability": "nonpayable",
      "type": "function"
    },
    {
      "inputs": [
        {
          "internalType": "address",
          "name": "newOwner",
          "type": "address"
        }
      ],
      "name": "transferOwnership",
      "outputs": [],
      "stateMutability": "nonpayable",
      "type": "function"
    },
    {
      "inputs": [
        {
          "internalType": "address",
          "name": "",
          "type": "address"
        }
      ],
      "name": "userBalances",
      "outputs": [
        {
          "internalType": "uint256",
          "name": "",
          "type": "uint256"
        }
      ],
      "stateMutability": "view",
      "type": "function",
      "constant": true
    },
    {
      "inputs": [
        {
          "internalType": "address",
          "name": "",
          "type": "address"
        },
        {
          "internalType": "uint256",
          "name": "",
          "type": "uint256"
        }
      ],
      "name": "userFiles",
      "outputs": [
        {
          "internalType": "string",
          "name": "name",
          "type": "string"
        },
        {
          "internalType": "string",
          "name": "ipfsHash",
          "type": "string"
        },
        {
          "internalType": "string",
          "name": "fileType",
          "type": "string"
        },
        {
          "internalType": "uint256",
          "name": "size",
          "type": "uint256"
        },
        {
          "internalType": "address",
          "name": "uploader",
          "type": "address"
        },
        {
          "internalType": "uint256",
          "name": "uploadTime",
          "type": "uint256"
        },
        {
          "internalType": "bool",
          "name": "isPublic",
          "type": "bool"
        },
        {
          "internalType": "uint256",
          "name": "downloadPrice",
          "type": "uint256"
        }
      ],
      "stateMutability": "view",
      "type": "function",
      "constant": true
    },
    {
      "inputs": [
        {
          "internalType": "address",
          "name": "",
          "type": "address"
        }
      ],
      "name": "userPoints",
      "outputs": [
        {
          "internalType": "uint256",
          "name": "",
          "type": "uint256"
        }
      ],
      "stateMutability": "view",
      "type": "function",
      "constant": true
    },
    {
      "inputs": [
        {
          "internalType": "address",
          "name": "",
          "type": "address"
        }
      ],
      "name": "userReferralCode",
      "outputs": [
        {
          "internalType": "string",
          "name": "",
          "type": "string"
        }
      ],
      "stateMutability": "view",
      "type": "function",
      "constant": true
    },
    {
      "inputs": [
        {
          "internalType": "address",
          "name": "",
          "type": "address"
        }
      ],
      "name": "userReferralCount",
      "outputs": [
        {
          "internalType": "uint256",
          "name": "",
          "type": "uint256"
        }
      ],
      "stateMutability": "view",
      "type": "function",
      "constant": true
    },
    {
      "inputs": [
        {
          "internalType": "address",
          "name": "",
          "type": "address"
        }
      ],
      "name": "userStorageLimit",
      "outputs": [
        {
          "internalType": "uint256",
          "name": "",
          "type": "uint256"
        }
      ],
      "stateMutability": "view",
      "type": "function",
      "constant": true
    },
    {
      "inputs": [
        {
          "internalType": "address",
          "name": "",
          "type": "address"
        }
      ],
      "name": "userStorageUsed",
      "outputs": [
        {
          "internalType": "uint256",
          "name": "",
          "type": "uint256"
        }
      ],
      "stateMutability": "view",
      "type": "function",
      "constant": true
    },
    {
      "stateMutability": "payable",
      "type": "receive",
      "payable": true
    },
    {
      "inputs": [
        {
          "internalType": "string",
          "name": "_profileCID",
          "type": "string"
        }
      ],
      "name": "registerUser",
      "outputs": [],
      "stateMutability": "nonpayable",
      "type": "function"
    },
    {
      "inputs": [
        {
          "internalType": "string",
          "name": "_code",
          "type": "string"
        }
      ],
      "name": "redeemReferral",
      "outputs": [],
      "stateMutability": "nonpayable",
      "type": "function"
    },
    {
      "inputs": [],
      "name": "generateReferralCode",
      "outputs": [
        {
          "internalType": "string",
          "name": "",
          "type": "string"
        }
      ],
      "stateMutability": "nonpayable",
      "type": "function"
    },
    {
      "inputs": [],
      "name": "deposit",
      "outputs": [],
      "stateMutability": "payable",
      "type": "function",
      "payable": true
    },
    {
      "inputs": [
        {
          "internalType": "uint256",
          "name": "amount",
          "type": "uint256"
        }
      ],
      "name": "withdraw",
      "outputs": [],
      "stateMutability": "nonpayable",
      "type": "function"
    },
    {
      "inputs": [],
      "name": "getUserBalance",
      "outputs": [
        {
          "internalType": "uint256",
          "name": "",
          "type": "uint256"
        }
      ],
      "stateMutability": "view",
      "type": "function",
      "constant": true
    },
    {
      "inputs": [],
      "name": "upgradeStorage",
      "outputs": [],
      "stateMutability": "nonpayable",
      "type": "function"
    },
    {
      "inputs": [
        {
          "internalType": "string",
          "name": "name",
          "type": "string"
        },
        {
          "internalType": "string",
          "name": "cid",
          "type": "string"
        },
        {
          "internalType": "string",
          "name": "fileType",
          "type": "string"
        },
        {
          "internalType": "uint256",
          "name": "size",
          "type": "uint256"
        }
      ],
      "name": "uploadFile",
      "outputs": [],
      "stateMutability": "nonpayable",
      "type": "function"
    },
    {
      "inputs": [
        {
          "internalType": "string",
          "name": "cid",
          "type": "string"
        },
        {
          "internalType": "address",
          "name": "receiver",
          "type": "address"
        }
      ],
      "name": "shareFile",
      "outputs": [],
      "stateMutability": "nonpayable",
      "type": "function"
    },
    {
      "inputs": [
        {
          "internalType": "string",
          "name": "cid",
          "type": "string"
        },
        {
          "internalType": "bool",
          "name": "pub",
          "type": "bool"
        },
        {
          "internalType": "uint256",
          "name": "price",
          "type": "uint256"
        }
      ],
      "name": "setFileVisibilityAndPrice",
      "outputs": [],
      "stateMutability": "nonpayable",
      "type": "function"
    },
    {
      "inputs": [
        {
          "internalType": "string",
          "name": "cid",
          "type": "string"
        }
      ],
      "name": "purchaseFile",
      "outputs": [],
      "stateMutability": "nonpayable",
      "type": "function"
    },
    {
      "inputs": [
        {
          "internalType": "string",
          "name": "cid",
          "type": "string"
        }
      ],
      "name": "deleteFile",
      "outputs": [],
      "stateMutability": "nonpayable",
      "type": "function"
    },
    {
      "inputs": [],
      "name": "getMyFiles",
      "outputs": [
        {
          "components": [
            {
              "internalType": "string",
              "name": "name",
              "type": "string"
            },
            {
              "internalType": "string",
              "name": "ipfsHash",
              "type": "string"
            },
            {
              "internalType": "string",
              "name": "fileType",
              "type": "string"
            },
            {
              "internalType": "uint256",
              "name": "size",
              "type": "uint256"
            },
            {
              "internalType": "address",
              "name": "uploader",
              "type": "address"
            },
            {
              "internalType": "uint256",
              "name": "uploadTime",
              "type": "uint256"
            },
            {
              "internalType": "bool",
              "name": "isPublic",
              "type": "bool"
            },
            {
              "internalType": "uint256",
              "name": "downloadPrice",
              "type": "uint256"
            }
          ],
          "internalType": "struct DShareStorage.File[]",
          "name": "",
          "type": "tuple[]"
        }
      ],
      "stateMutability": "view",
      "type": "function",
      "constant": true
    },
    {
      "inputs": [
        {
          "internalType": "string",
          "name": "cid",
          "type": "string"
        }
      ],
      "name": "getFileByHash",
      "outputs": [
        {
          "internalType": "string",
          "name": "",
          "type": "string"
        },
        {
          "internalType": "string",
          "name": "",
          "type": "string"
        },
        {
          "internalType": "uint256",
          "name": "",
          "type": "uint256"
        },
        {
          "internalType": "address",
          "name": "",
          "type": "address"
        },
        {
          "internalType": "uint256",
          "name": "",
          "type": "uint256"
        },
        {
          "internalType": "bool",
          "name": "",
          "type": "bool"
        },
        {
          "internalType": "uint256",
          "name": "",
          "type": "uint256"
        }
      ],
      "stateMutability": "view",
      "type": "function",
      "constant": true
    },
    {
      "inputs": [
        {
          "internalType": "address",
          "name": "u",
          "type": "address"
        }
      ],
      "name": "getUserStorageInfo",
      "outputs": [
        {
          "internalType": "uint256",
          "name": "used",
          "type": "uint256"
        },
        {
          "internalType": "uint256",
          "name": "limit",
          "type": "uint256"
        }
      ],
      "stateMutability": "view",
      "type": "function",
      "constant": true
    },
    {
      "inputs": [],
      "name": "getMyPoints",
      "outputs": [
        {
          "internalType": "uint256",
          "name": "",
          "type": "uint256"
        }
      ],
      "stateMutability": "view",
      "type": "function",
      "constant": true
    },
    {
      "inputs": [
        {
          "internalType": "uint256",
          "name": "offset",
          "type": "uint256"
        },
        {
          "internalType": "uint256",
          "name": "limit",
          "type": "uint256"
        },
        {
          "internalType": "string",
          "name": "fileTypeFilter",
          "type": "string"
        }
      ],
      "name": "getAllPublicFiles",
      "outputs": [
        {
          "components": [
            {
              "internalType": "string",
              "name": "name",
              "type": "string"
            },
            {
              "internalType": "string",
              "name": "ipfsHash",
              "type": "string"
            },
            {
              "internalType": "string",
              "name": "fileType",
              "type": "string"
            },
            {
              "internalType": "uint256",
              "name": "size",
              "type": "uint256"
            },
            {
              "internalType": "address",
              "name": "uploader",
              "type": "address"
            },
            {
              "internalType": "uint256",
              "name": "uploadTime",
              "type": "uint256"
            },
            {
              "internalType": "bool",
              "name": "isPublic",
              "type": "bool"
            },
            {
              "internalType": "uint256",
              "name": "downloadPrice",
              "type": "uint256"
            }
          ],
          "internalType": "struct DShareStorage.File[]",
          "name": "",
          "type": "tuple[]"
        }
      ],
      "stateMutability": "view",
      "type": "function",
      "constant": true
    },
    {
      "inputs": [
        {
          "internalType": "uint256",
          "name": "offset",
          "type": "uint256"
        },
        {
          "internalType": "uint256",
          "name": "limit",
          "type": "uint256"
        },
        {
          "internalType": "string",
          "name": "fileTypeFilter",
          "type": "string"
        }
      ],
      "name": "getMyFilesAndPublic",
      "outputs": [
        {
          "components": [
            {
              "internalType": "string",
              "name": "name",
              "type": "string"
            },
            {
              "internalType": "string",
              "name": "ipfsHash",
              "type": "string"
            },
            {
              "internalType": "string",
              "name": "fileType",
              "type": "string"
            },
            {
              "internalType": "uint256",
              "name": "size",
              "type": "uint256"
            },
            {
              "internalType": "address",
              "name": "uploader",
              "type": "address"
            },
            {
              "internalType": "uint256",
              "name": "uploadTime",
              "type": "uint256"
            },
            {
              "internalType": "bool",
              "name": "isPublic",
              "type": "bool"
            },
            {
              "internalType": "uint256",
              "name": "downloadPrice",
              "type": "uint256"
            }
          ],
          "internalType": "struct DShareStorage.File[]",
          "name": "myFiles",
          "type": "tuple[]"
        },
        {
          "components": [
            {
              "internalType": "string",
              "name": "name",
              "type": "string"
            },
            {
              "internalType": "string",
              "name": "ipfsHash",
              "type": "string"
            },
            {
              "internalType": "string",
              "name": "fileType",
              "type": "string"
            },
            {
              "internalType": "uint256",
              "name": "size",
              "type": "uint256"
            },
            {
              "internalType": "address",
              "name": "uploader",
              "type": "address"
            },
            {
              "internalType": "uint256",
              "name": "uploadTime",
              "type": "uint256"
            },
            {
              "internalType": "bool",
              "name": "isPublic",
              "type": "bool"
            },
            {
              "internalType": "uint256",
              "name": "downloadPrice",
              "type": "uint256"
            }
          ],
          "internalType": "struct DShareStorage.File[]",
          "name": "publicFiles",
          "type": "tuple[]"
        }
      ],
      "stateMutability": "view",
      "type": "function",
      "constant": true
    },
    {
      "inputs": [
        {
          "internalType": "uint256",
          "name": "amount",
          "type": "uint256"
        }
      ],
      "name": "withdrawContractFees",
      "outputs": [],
      "stateMutability": "nonpayable",
      "type": "function"
    }
  ],
  "bytecode": "0x6080806040523461007c573315610067575f8054336001600160a01b03198216811783556040519290916001600160a01b0316907f8be0079c531659141344cd1fd0a4f28419497f9722a3daafe3b4186f6b6457e09080a35f601055613c6390816100818239f35b631e4fbdf760e01b81525f6004820152602490fd5b5f80fdfe6080604052600436101561008b575b361561007357335f52600f60205261002c60ff60405f2054166131f3565b335f52600660205260405f20610043348254613230565b90556040513481527f2da466a7b24304f47e87fa2e1e5a81b9831ce54fec19055ce277ca2f39ba42c460203392a2005b335f52600f60205261002c60ff60405f2054166131f3565b5f3560e01c80630160baf714612d1a57806307646f1d146128f05780630ac48c4a146128aa5780630cfa9249146128885780630d6330fa146118565780631158d320146124ab57806317bd2a24146123805780631c3830ad146124a65780631ca6a55b146124a657806326224c641461246e57806326313b351461238557806326c519bd146123805780632d8a769e146123485780632e1a7d4d1461225e57806344d8a3ec1461223d5780634681c0ba1461221e5780634e9e691a146121da5780634edeb642146121be5780634f97f374146121a3578063618c506d14612157578063631654f4146121395780636ccc20f014611b09578063704f1b941461194e578063715018a6146118f7578063718f38a61461185b57806371a0867b1461185657806385035a851461175d5780638da5cb5b1461173657806390398b371461169757806390a4b0df14611618578063a9910054146113a8578063aaea3d9c14611370578063ab8e28e81461108f578063b0a2fc1b14610bcc578063b7013dc114610ba5578063ba9c463714610b7e578063c3c5a54714610b41578063c855826114610b09578063cd9b4eaa14610ad8578063cecaf69e146109c3578063d0e30db0146109a0578063d3d058bd1461091c578063d4ec6d95146108fe578063d91dd84f146108c6578063dc68d9e91461088e578063e4f5cf3114610871578063ebaebb4114610834578063ebceb82c146103b7578063f2fde38b14610332578063f500d4d2146102f5578063f50ddbc7146102fa578063fa1bfb9b146102f55763fde59fa30361000e57346102f1575f3660031901126102f1576020604051600a8152f35b5f80fd5b6131ad565b346102f15760203660031901126102f1576001600160a01b0361031b613045565b165f526005602052602060405f2054604051908152f35b346102f15760203660031901126102f15761034b613045565b6103536131c8565b6001600160a01b0390811690811561039f575f54826001600160601b0360a01b8216175f55167f8be0079c531659141344cd1fd0a4f28419497f9722a3daafe3b4186f6b6457e05f80a3005b604051631e4fbdf760e01b81525f6004820152602490fd5b346102f15760403660031901126102f1576004356001600160401b0381116102f1576103e7903690600401612fbc565b9060249081356001600160a01b0381811692918390036102f15761041761040f368785612dab565b51151561330f565b61043a81600461043061042b368a88612dab565b612e40565b0154163314613531565b335f52602092600f845261045460ff60405f2054166131f3565b805f52600f845260ff60405f205416156107f05733811415806107e7575b156107b457335f52600684526509184e72a000916104968360405f205410156132d1565b604051878582378581898101600281520301902095335f526004865260405f20549160038801926340000000845491145f146107a9576312c00000905b1161077257335f526006875260405f208054906509184e729fff19820191821161075f5755805f54165f526006875260405f2080549086820180921161075f57555f54167fbde344b6f67c3bf7e0ecbbf22b04267d5d3ae0aa1909c0000b812f6b14ce45b9608060405187815260408a820152600960408201526853686172652046656560b81b6060820152a2825f526003865261057760405f2054835490613230565b835f526004875260405f20541061071c57505f955f5b835f52600180885260405f20805483101561070a57816105b0846105b793613194565b5001612e9e565b8881519101206105c8368c8a612dab565b898151910120146105e257506105dd906132b6565b61058d565b9050630c8000009394959697505b156106d6575b5054116106cf57600a945b851515938461068e575b81604051928392833781015f81520390209160405190815285858201527f660b0bd0d78bce8eacfcf38754fac05cc11baf2f86d9d56c9e3309e480fdd85560403392a461065457005b6040908151928352820152600a60408201526946696c6520536861726560b01b60608201525f80516020613bee83398151915260803392a2005b335f526005865260405f206106a4888254613230565b9055335f526005865260405f20546040519081525f80516020613c0e833981519152873392a261060b565b5f94610601565b6106ea90845f526001885260405f2061350e565b8054835f526003875261070260405f20918254613230565b9055876105f6565b505050630c80000092939495966105f0565b8560176064926040519262461bcd60e51b845260048401528201527f52656365697665722071756f74612065786365656465640000000000000000006044820152fd5b83634e487b7160e01b5f5260116004525ffd5b60405162461bcd60e51b8152600481018890526010818401526f14da185c99481cda5e99481b1a5b5a5d60821b6044820152606490fd5b6325800000906104d3565b60405162461bcd60e51b815260048101859052600c818701526b2130b2103932b1b2b4bb32b960a11b6044820152606490fd5b50801515610472565b60405162461bcd60e51b8152600481018590526017818701527f5265636569766572206e6f7420726567697374657265640000000000000000006044820152606490fd5b346102f15760203660031901126102f1576001600160a01b03610855613045565b165f52600b602052602060ff60405f2054166040519015158152f35b346102f1575f3660031901126102f15760206040516202a3008152f35b346102f15760203660031901126102f1576001600160a01b036108af613045565b165f526004602052602060405f2054604051908152f35b346102f15760203660031901126102f1576001600160a01b036108e7613045565b165f526003602052602060405f2054604051908152f35b346102f1575f3660031901126102f1576020604051630c8000008152f35b346102f15760203660031901126102f1576004356007548110156102f1576109439061315c565b5061094d81612e9e565b61099c61095c60018401612e9e565b9261096960028201612e9e565b90600381015460018060a01b03600483015416600583015491600760ff6006860154169401549460405198899889612f64565b0390f35b5f3660031901126102f157335f52600f60205261002c60ff60405f2054166131f3565b346102f15760203660031901126102f1576004356001600160401b0381116102f1576109f56020913690600401612fbc565b9190610a0561040f368584612dab565b82604051938492833760029082019081520301902060048101546001600160a01b0316908115610aa757610a7991600382015490600583015460ff60068501541690600785015492610a87610a656002610a5e89612e9e565b9801612e9e565b60405198899860e08a5260e08a0190612f3f565b9088820360208a0152612f3f565b94604087015260608601526080850152151560a084015260c08301520390f35b60405162461bcd60e51b8152602060048201526009602482015268139bdd08199bdd5b9960ba1b6044820152606490fd5b346102f15761099c610af5610aec3661305b565b92919091613842565b604051918291602083526020830190613091565b346102f15760203660031901126102f1576001600160a01b03610b2a613045565b165f52600e602052602060405f2054604051908152f35b346102f15760203660031901126102f1576001600160a01b03610b62613045565b165f52600f602052602060ff60405f2054166040519015158152f35b346102f1575f3660031901126102f157335f526005602052602060405f2054604051908152f35b346102f1575f3660031901126102f157335f526006602052602060405f2054604051908152f35b346102f1575f3660031901126102f157335f526020600f815260ff610bf68160405f2054166131f3565b335f52600c8252610c0a60405f2054612e66565b6110565760609133831b905f5b838116600a958682101561104a57506010908154610c34816132b6565b8355604051908582019042825287604084015244605484015243607484015260949081840152825260c08201918083106001600160401b03841117610f455762989680926040525190200691825f917a184f03e93ff9f4daa797ed6e38ed64bf6a1f0100000000000000008083101561103c575b50866d04ee2d6d415b85acef81000000008087101561102d575b5050662386f26fc100008086101561101e575b50506305f5e1008085101561100f575b5061271080851015611000575b50886064948580821015610ff3575b501015610fe9575b9790600198899283830191610d1d83612d90565b92610d2b6040519485612d6f565b808452610d3a601f1991612d90565b01368a85013760219383018401855b610fa7575b505050985b610f59575b50506040518751610d6c8183888c01612e1f565b600d90820190815281900385019020546001600160a01b031615610df957600914610db757508316838114610da357600101610c17565b634e487b7160e01b5f52601160045260245ffd5b60405162461bcd60e51b815260048101849052601e60248201527f436f756c64206e6f742067656e657261746520756e6971756520636f646500006044820152fd5b505050929150505b335f52600c825260405f20918151926001600160401b038411610f4557610e3284610e2c8354612e66565b83613253565b8193601f8111600114610ee65780919293945f91610edb575b508160011b915f199060031b1c19161790555b60405181818451610e728183858901612e1f565b8101600d815203019020336001600160601b0360a01b8254161790556040518181527f86d606287c9d4f3a350b0e6ea78a04d97425fff091713f4a433942578dc6f161339180610ec485820187612f3f565b0390a261099c604051928284938452830190612f3f565b905084015185610e4b565b601f19811694825f52835f20905f5b878110610f2e57508260019495969710610f16575b5050811b019055610e5e565b8601515f1960f88460031b161c191690558580610f0a565b90918560018192858a015181550193019101610ef5565b634e487b7160e01b5f52604160045260245ffd5b9097600781511015610fa157908891610f9b826040518093600360fc1b8b830152610f8c815180928d8686019101612e1f565b81010385810184520182612d6f565b98610d53565b97610d58565b82939495505f9291921901916f181899199a1a9b1b9c1cb0b131b232b360811b8282061a835304908b8215610fe157949392919085610d49565b949392610d4e565b9060010190610d09565b6002910493019285610d01565b60049192940493019089610cf2565b60089192940493019089610ce5565b90919294049301908980610cd5565b9091939504940191868b610cc2565b82049450604092508a610ca8565b94505050925050610e01565b60405162461bcd60e51b8152600481018390526011602482015270416c7265616479206861766520636f646560781b6044820152606490fd5b346102f1576020806003193601126102f1576004356001600160401b0381116102f1576110c0903690600401612fbc565b335f52600f83526110d760ff60405f2054166131f3565b335f52600b835260ff60405f20541661133357335f52600a835260405f20546202a3008101809111610da35742116112fe5780604051928337600d90820190815281900382019020546001600160a01b03169081156112cb5733821461128757335f52600b815260405f20600160ff198254161790556005815260405f2080546103e891828201809211610da357556040518181526040838201526013604082015272526566657272616c202852656665727265642960681b60608201525f80516020613bee833981519152908160803392a2335f526005835260405f2054906040519182525f80516020613c0e8339815191529182853392a2845f526005845260405f2090815491848301809311610da35786948593608092556040519081526040878201526013604082015272526566657272616c202852656665727265722960681b6060820152a2815f52600583528260405f2054604051908152a2815f52600e815260405f2090815460018101809111610da3577fef8663b9751c94e9c58a80fa2198dc99714bf9d04d8d02e1b285ffdb39e80f689255825f52600e815260405f2054604051908152a2005b6064906040519062461bcd60e51b82526004820152601960248201527f53656c662d726566657272616c206e6f7420616c6c6f776564000000000000006044820152fd5b6064906040519062461bcd60e51b82526004820152600c60248201526b496e76616c696420636f646560a01b6044820152fd5b60405162461bcd60e51b815260048101849052600d60248201526c15da5b991bddc818db1bdcd959609a1b6044820152606490fd5b60405162461bcd60e51b8152600481018490526015602482015274149959995c9c985b08185b1c9958591e481d5cd959605a1b6044820152606490fd5b346102f15760203660031901126102f1576001600160a01b03611391613045565b165f52600a602052602060405f2054604051908152f35b346102f1576020806003193601126102f1576004356001600160401b0381116102f1576113d9903690600401612fbc565b6113e761040f368385612dab565b6114026001600160a01b03600461043061042b368688612dab565b60405181838237838183810160028152030190209060ff6006600384015493015416611600575b6040518184823784818381016002815203019020926114478461356c565b5f600760019561145887820161356c565b6114646002820161356c565b8260038201558260048201558260058201558260068201550155835f905b6114e1575b507f4f290849018eb780affafba63563006086546149769e7b527f0e61c4f282de07929350335f526003855260405f206114c28582546132c4565b905581604051928392833781015f8152039020926040519283523392a3005b335f5284865260405f2080548210156115fa57856105b08361150293613194565b868151910120611513368585612dab565b8781519101201461152e5761152885916132b6565b90611482565b9293335f5280865260405f2054935f1994858101908111610da35781106115b6575b50335f52855260405f2080549384156115a2577f4f290849018eb780affafba63563006086546149769e7b527f0e61c4f282de0794019061159a6115948383613194565b906135b4565b558392611487565b634e487b7160e01b5f52603160045260245ffd5b335f5281875260405f20908154868101908111610da3576115dd6115ee916115f494613194565b5091335f52848a5260405f20613194565b9061345f565b86611550565b50611487565b61161361160e368386612dab565b61361a565b611429565b346102f1575f3660031901126102f157335f526001602081815260405f209182546116428161379a565b936116506040519586612d6f565b8185525f908152838120848087015b848410611679576040518281528061099c8185018b613091565b8591600891611687856137b1565b815201920192019190859061165f565b346102f15760203660031901126102f1576004356116b36131c8565b801580158061172c575b156116f6575f808093819360018060a01b038354169083906116ed575bf1156116e257005b6040513d5f823e3d90fd5b506108fc6116da565b60405162461bcd60e51b815260206004820152600e60248201526d125b9d985b1a5908185b5bdd5b9d60921b6044820152606490fd5b50814710156116bd565b346102f1575f3660031901126102f1575f546040516001600160a01b039091168152602090f35b346102f1575f3660031901126102f157335f526020600f815261178660ff60405f2054166131f3565b335f5260048152634000000060405f20540361182357335f526006815267016345785d8a00006117bc8160405f205410156132d1565b335f526006825260405f2080549067016345785d89ffff198201918211610da35755335f5260048252640140000000918260405f20556040519283528201527f9152b89ee0be7552fe4937c9eb822b0a20a6feca93adb429c221a31cf479d80360403392a2005b6064906040519062461bcd60e51b82526004820152600c60248201526b20b63932b0b23c901a9023a160a11b6044820152fd5b612fe9565b346102f15760403660031901126102f157611874613045565b6001600160a01b039081165f9081526001602052604090208054602435908110156102f1576118a291613194565b509061099c6118b083612e9e565b916118bd60018501612e9e565b936118ca60028201612e9e565b91600382015490600483015416600583015491600760ff6006860154169401549460405198899889612f64565b346102f1575f3660031901126102f15761190f6131c8565b5f80546001600160a01b0319811682556001600160a01b03167f8be0079c531659141344cd1fd0a4f28419497f9722a3daafe3b4186f6b6457e08280a3005b346102f1576020806003193601126102f1576001600160401b036004358181116102f157611980903690600401612fbc565b335f52600f845260ff60405f205416611acf57335f52600f845260405f20926001938460ff198254161790556009855260405f20908211610f45576119c982610e2c8354612e66565b5f93601f8311600114611a53578280917f48cac28ad4dc618e15f4c2dd5e97751182f166de97b25618318b2112aa951a2f965f93611a48575b501b905f198460031b1c19161790555b335f52600a84524260405f205560048452634000000060405f2055611a436040519283928684523396840191613296565b0390a2005b860135925088611a02565b601f19831694825f52865f20905f5b88888210611abb575050847f48cac28ad4dc618e15f4c2dd5e97751182f166de97b25618318b2112aa951a2f9710611aa2575b505082811b019055611a12565b8501355f19600386901b60f8161c191690558680611a95565b878301358455928401929182019101611a62565b60405162461bcd60e51b8152600481018590526012602482015271105b1c9958591e481c9959da5cdd195c995960721b6044820152606490fd5b346102f15760803660031901126102f1576004356001600160401b0381116102f157611b39903690600401612fbc565b6024356001600160401b0381116102f157611b58903690600401612fbc565b6044356001600160401b0381116102f157611b77903690600401612fbc565b90611b8661040f368587612dab565b335f52600f602052611b9e60ff60405f2054166131f3565b6040518385823760028185019081528190036020019020600401546001600160a01b031661210757335f526004602052634000000060405f20546003602052611bf881611bf160643560405f2054613230565b1115613348565b036120b4576312c000006064351161207757611c40905b60405192611c1c84612d53565b611c2736888a612dab565b8452611c34368688612dab565b60208501523691612dab565b604082015260643560608201523360808201524260a08201525f60c08201525f60e08201526040518284823760208184810160028152030190209080518051906001600160401b038211610f45578190611ca482611c9e8754612e66565b87613253565b602090601f831160011461200f575f92612004575b50508160011b915f199060031b1c19161782555b60208101518051906001600160401b038211610f45578190611cff82611cf66001880154612e66565b60018801613253565b602090601f8311600114611f96575f92611f8b575b50508160011b915f199060031b1c19161760018301555b60408101518051906001600160401b038211610f4557611d5b82611d526002870154612e66565b60028701613253565b602090601f8311600114611f1a5791806007949260e0945f92611f0f575b50508160011b915f199060031b1c19161760028501555b606081015160038501556004840160018060a01b036080830151166001600160601b0360a01b82541617905560a08101516005850155611de560c08201511515600686019060ff801983541691151516179055565b0151910155335f526001602052611e1460405f206040518385823760208185810160028152030190209061350e565b335f52600360205260405f20611e2d6064358254613230565b9055335f52600560205260405f209081549260038401809411610da3577faf5bcb532dbd747405fc9565ee753f1adf1adda2ee45335b4039c1a04eb4b09f93611ebb9355335f52600560205260405f20546040519081525f80516020613c0e83398151915260203392a281604051928392833781015f81520390209360405193606085526060850191613296565b916064356020820152600360408201528033930390a36040516003815260406020820152600b60408201526a119a5b1948155c1b1bd85960aa1b60608201525f80516020613bee83398151915260803392a2005b015190508a80611d79565b90600285015f5260205f20915f5b601f1985168110611f735750926007949260019260e09583601f19811610611f5b575b505050811b016002850155611d90565b01515f1960f88460031b161c191690558a8080611f4b565b91926020600181928685015181550194019201611f28565b015190508880611d14565b9250600185015f5260205f20905f935b601f1984168510611fe9576001945083601f19811610611fd1575b505050811b016001830155611d2b565b01515f1960f88460031b161c19169055888080611fc1565b81810151835560209485019460019093019290910190611fa6565b015190508880611cb9565b9250845f5260205f20905f935b601f198416851061205c576001945083601f19811610612044575b505050811b018255611ccd565b01515f1960f88460031b161c19169055888080612037565b8181015183556020948501946001909301929091019061201c565b60405162461bcd60e51b81526020600482015260156024820152741f101998181026a11037b710189023a110383630b760591b6044820152606490fd5b6325800000606435116120ca57611c4090611c0f565b60405162461bcd60e51b81526020600482015260156024820152741f101b18181026a11037b7101a9023a110383630b760591b6044820152606490fd5b60405162461bcd60e51b815260206004820152600a6024820152694349442065786973747360b01b6044820152606490fd5b346102f1575f3660031901126102f157602060405163400000008152f35b346102f15760203660031901126102f1576001600160a01b03612178613045565b165f52600c60205261099c61218f60405f20612e9e565b604051918291602083526020830190612f3f565b346102f1575f3660031901126102f157602060405160038152f35b346102f1575f3660031901126102f15760206040516103e88152f35b346102f15760203660031901126102f1576001600160a01b036121fb613045565b165f5260036020526040805f20546004602052815f205482519182526020820152f35b346102f1575f3660031901126102f15760206040516401400000008152f35b346102f1575f3660031901126102f1576020604051662386f26fc100008152f35b346102f1576020806003193601126102f15760043590335f52600f815261228b60ff60405f2054166131f3565b8115801580612333575b156122ff578290335f526006835260405f206122b28382546132c4565b90555f906122f6575b5f80809381933390f1156116e2577f7084f5476618d8e60b11ef0d7d3f06914655adb8793e28ff7f018d4c76d505d5906040519283523392a2005b506108fc6122bb565b60405162461bcd60e51b815260048101839052600c60248201526b125b9cdd59999a58da595b9d60a21b6044820152606490fd5b50335f52600682528260405f20541015612295565b346102f15760203660031901126102f1576001600160a01b03612369613045565b165f52600960205261099c61218f60405f20612e9e565b613007565b346102f1576123933661305b565b929091604051916390a4b0df60e01b83525f83600481305afa9283156116e2575f9361244e575b506123ee5f939460405196879485946366cda75560e11b865260048601526024850152606060448501526064840191613296565b0381305afa9182156116e25761241e9261099c915f9161242c575b50604051938493604085526040850190613091565b908382036020850152613091565b61244891503d805f833e6124408183612d6f565b810190613a9e565b84612409565b5f93506124676123ee913d8087833e6124408183612d6f565b93506123ba565b346102f15760203660031901126102f1576001600160a01b0361248f613045565b165f526006602052602060405f2054604051908152f35b613027565b346102f1576020806003193601126102f1576004356001600160401b0381116102f1576124dc903690600401612fbc565b906124eb61040f368484612dab565b335f52600f835261250260ff60405f2054166131f3565b604051828282378381848101600281520301902091600483019060018060a01b03808354168015158061287a575b156128475780331461280c575f52600f865260ff60405f205416156127c757600785015492335f526006875261256c8460405f205410156132d1565b6014840284810460141485151715610da3576064900461258c81866132c4565b335f526006895260405f206125a28782546132c4565b9055835f54165f526006895260405f206125bd838254613230565b9055838354165f52600689526125d860405f20918254613230565b90557fbde344b6f67c3bf7e0ecbbf22b04267d5d3ae0aa1909c0000b812f6b14ce45b96080845f54169260405190815260408b820152600c60408201526b446f776e6c6f61642046656560a01b6060820152a2335f526003875260405f205461265d61264a6003890192835490613230565b335f5260048a5260405f20541015613348565b5f965f5b335f526001808b5260405f2080548310156127b857816105b08461268493613194565b8b815191012061269536898c612dab565b8c8151910120146126af57506126aa906132b6565b612661565b919293949596979850505b15612784575b5050335f526005865260405f2080549060148201809211610da35755335f526005865260405f20546040519081525f80516020613c0e833981519152873392a254169281604051928392833781015f81520390206040519182526014848301527ff0aea29c22aeac71170631f9d147db2136e554e98aaa99bdb0efec3c58be5b9760403393a4604080519160148352820152600d60408201526c119a5b1948111bdddb9b1bd859609a1b60608201525f80516020613bee83398151915260803392a2005b61279890335f526001895260405f2061350e565b54335f52600387526127af60405f20918254613230565b905586806126c0565b505050909192939495966126ba565b60405162461bcd60e51b815260048101879052601760248201527f55706c6f61646572206e6f7420726567697374657265640000000000000000006044820152606490fd5b60405162461bcd60e51b815260048101889052601360248201527243616e6e6f7420627579206f776e2066696c6560681b6044820152606490fd5b60405162461bcd60e51b815260048101889052600b60248201526a556e617661696c61626c6560a81b6044820152606490fd5b5060ff600687015416612530565b346102f1575f3660031901126102f157602060405167016345785d8a00008152f35b346102f15760206128ba36612de1565b816128ce6040519283815193849201612e1f565b600d90820190815281900382019020546040516001600160a01b039091168152f35b346102f15760603660031901126102f1576004356001600160401b0381116102f157612920903690600401612fbc565b9060243591821590811584036102f15761293e61040f368386612dab565b6129596001600160a01b03600461043061042b368689612dab565b604435926509184e72a00084101580612d09575b15612ccf57604051948282873785838101600281526020978891030190209060068201906129ac8160ff845416939060ff801983541691151516179055565b8660078094015580612cc7575b15612c7457506129ca368484612dab565b905f90604051918351928981818701956129e5818389612e1f565b81016008815203019020548015801590612b5a575b612b1a575b5015612a4e575b50505092604092917f18240a064fcfcd67f51bb9fc21fb1ffaf35efe88e78bcd62745b58c991935478945b818551928392833781015f815203902094835192158352820152a2005b6040969391959492965188818951612a6781838c612e1f565b81016002815203019020815490600160401b821015610f45576115ee826001612a929401855561315c565b545f19810195908611610da3577f18240a064fcfcd67f51bb9fc21fb1ffaf35efe88e78bcd62745b58c99193547896604096612adc8a612aec948a51809381928751928391612e1f565b81016008815203019020556135fa565b7ffa85fdfc34fc310b5e38a193a5c67d6b1a113621985cc5ea53d0b1e0c21ea2965f80a29194819394612a06565b825481109081612b39575b50612b31575b896129ff565b506001612b2b565b612b4991506105b060019161315c565b89815191012084518420148a612b25565b5082541580159081612b6d575b506129fa565b9050612c6057825f526040518a815f7fa66cc928b5edb82af9bd49922954155ab7b0942694bea4ce44661d9a8736c689805490612ba982612e66565b8085529160018116908115612c3f5750600114612be0575b5050612bcf92500382612d6f565b8a815191012085518520148b612b67565b92509250505f52818c7fc2492bdd5bcaf773fb381724b360bd17ac25b544e3855f98b8de59661d724051925f905b808210612c2557508e9350820101612bcf8f612bc1565b845482870184015260019094019385935090820190612c0e565b915050612bcf94925060ff191682840152151560051b8201018d928f612bc1565b634e487b7160e01b5f52603260045260245ffd5b84809492507f18240a064fcfcd67f51bb9fc21fb1ffaf35efe88e78bcd62745b58c99193547896939160409691612cbf575b5015612a3157612cba61160e368484612dab565b612a31565b905088612ca6565b5080156129b9565b60405162461bcd60e51b81526020600482015260126024820152715072696365206f7574206f662072616e676560701b6044820152606490fd5b50662386f26fc1000084111561296d565b346102f157612d406020612d2d36612de1565b8160405193828580945193849201612e1f565b8101600281520301902061094d81612e9e565b61010081019081106001600160401b03821117610f4557604052565b90601f801991011681019081106001600160401b03821117610f4557604052565b6001600160401b038111610f4557601f01601f191660200190565b929192612db782612d90565b91612dc56040519384612d6f565b8294818452818301116102f1578281602093845f960137010152565b60206003198201126102f157600435906001600160401b0382116102f157806023830112156102f157816024612e1c93600401359101612dab565b90565b5f5b838110612e305750505f910152565b8181015183820152602001612e21565b6020612e59918160405193828580945193849201612e1f565b8101600281520301902090565b90600182811c92168015612e94575b6020831014612e8057565b634e487b7160e01b5f52602260045260245ffd5b91607f1691612e75565b9060405191825f825492612eb184612e66565b9081845260019485811690815f14612f1c5750600114612edc575b5050612eda92500383612d6f565b565b909391505f52602090815f20935f915b818310612f04575050612eda93508201015f80612ecc565b85548884018501529485019487945091830191612eec565b915050612eda94506020925060ff191682840152151560051b8201015f80612ecc565b90602091612f5881518092818552858086019101612e1f565b601f01601f1916010190565b949192612f8860e09794610a79612f96949c9b9a979c610100808b528a0190612f3f565b908682036040880152612f3f565b60608501989098526001600160a01b0316608084015260a0830152151560c08201520152565b9181601f840112156102f1578235916001600160401b0383116102f157602083818601950101116102f157565b346102f1575f3660031901126102f15760206040516312c000008152f35b346102f1575f3660031901126102f15760206040516509184e72a0008152f35b346102f1575f3660031901126102f157602060405163258000008152f35b600435906001600160a01b03821682036102f157565b60606003198201126102f1576004359160243591604435906001600160401b0382116102f15761308d91600401612fbc565b9091565b908082519081815260208091019281808460051b8301019501935f915b8483106130be5750505050505090565b9091929394958480600192601f198582030186528951906131116130fe6130ee8451610100808652850190612f3f565b8585015184820387860152612f3f565b6040808501519084830390850152612f3f565b91606080820151908301526080868060a01b0381830151169083015260a0808201519083015260c08082015115159083015260e08091015191015298019301930191949392906130ae565b600754811015612c605760075f5260031b7fa66cc928b5edb82af9bd49922954155ab7b0942694bea4ce44661d9a8736c68801905f90565b8054821015612c60575f5260205f209060031b01905f90565b346102f1575f3660031901126102f157602060405160148152f35b5f546001600160a01b031633036131db57565b60405163118cdaa760e01b8152336004820152602490fd5b156131fa57565b60405162461bcd60e51b815260206004820152600e60248201526d149959da5cdd195c88199a5c9cdd60921b6044820152606490fd5b91908201809211610da357565b818110613248575050565b5f815560010161323d565b9190601f811161326257505050565b612eda925f5260205f20906020601f840160051c8301931061328c575b601f0160051c019061323d565b909150819061327f565b908060209392818452848401375f828201840152601f01601f1916010190565b5f198114610da35760010190565b91908203918211610da357565b156132d857565b60405162461bcd60e51b815260206004820152600f60248201526e42616c616e636520746f6f206c6f7760881b6044820152606490fd5b1561331657565b60405162461bcd60e51b815260206004820152600a60248201526908adae0e8f240d0c2e6d60b31b6044820152606490fd5b1561334f57565b60405162461bcd60e51b815260206004820152600e60248201526d145d5bdd1848195e18d95959195960921b6044820152606490fd5b9080821461345b576133978154612e66565b906001600160401b038211610f455781906133bc826133b68654612e66565b86613253565b5f90601f83116001146133f0575f926133e5575b50508160011b915f199060031b1c1916179055565b015490505f806133d0565b81526020808220858352818320935090601f1985169083905b82821061344257505090846001959493921061342a575b505050811b019055565b01545f1960f88460031b161c191690555f8080613420565b8495819295850154815560018091019601940190613409565b5050565b91906134fb57808203613470575050565b60078161347e829385613385565b61348e6001820160018601613385565b61349e6002820160028601613385565b600381015460038501556004840160018060a01b036004830154166001600160601b0360a01b825416179055600581015460058501556134f460ff600683015416600686019060ff801983541691151516179055565b0154910155565b634e487b7160e01b5f525f60045260245ffd5b90815491600160401b831015610f4557826115ee916001612eda95018155613194565b1561353857565b60405162461bcd60e51b815260206004820152600c60248201526b2737ba103ab83637b0b232b960a11b6044820152606490fd5b6135768154612e66565b9081613580575050565b81601f5f9311600114613591575055565b9080839182526135b0601f60208420940160051c84016001850161323d565b5555565b906134fb576007816135c65f9361356c565b6135d26001820161356c565b6135de6002820161356c565b8260038201558260048201558260058201558260068201550155565b61361290602060405192828480945193849201612e1f565b810103902090565b60405190805191602090818181850195613635818389612e1f565b810160088152030190205490600754918281108061377b575b61365a575b5050505050565b5f1992808401908111610da3578082036136d4575b50506007549081156115a2576136a6945f93612adc93016136926115948261315c565b600755604051809381928751928391612e1f565b7f0310d2f7f73b16536d842a2f9e6b049e679aa1fd547437a567084467f97557045f80a25f80808080613653565b6136dd9061315c565b506136eb816115ee8461315c565b8260018092016040519283915f9181549161370583612e66565b92828116908115613762575060011461372c575b5050506008815203019020555f8061366f565b5f908152858120929350915b83831061374c5750505081015f8080613719565b8054838801528895879550909201918101613738565b60ff1916865250505080151502820190505f8080613719565b5061378a60016105b08361315c565b828151910120845186201461364e565b6001600160401b038111610f455760051b60200190565b906040516137be81612d53565b60e0600782946137cd81612e9e565b84526137db60018201612e9e565b60208501526137ec60028201612e9e565b60408501526003810154606085015260048101546001600160a01b03166080850152600581015460a0850152600681015460ff16151560c08501520154910152565b8051821015612c605760209160051b010190565b919290925f8094600754955b8681106139fd5750818510156139d55761387c9161386d869283613230565b908082116139cd575b506132c4565b916138868361379a565b93604061389581519687612d6f565b848652601f196138a48661379a565b01905f5b828110613987575050505f928392845b8881106138cc575b50505050505050905090565b81158015613959575b6138f4575b8686146138ef576138ea906132b6565b6138b8565b6138c0565b938381101580613950575b613913575b61390d906132b6565b936138da565b9461394861390d9161392d6139278861315c565b506137b1565b613937828c61382e565b52613942818b61382e565b506132b6565b959050613904565b508686106138ff565b5061396860026105b08361315c565b80516020809201209061397c368587612dab565b8051910120146138d5565b602090825161399581612d53565b60608082525f8491808385015280878501528301525f60808301525f60a08301525f60c08301525f60e0830152828b010152016138a8565b90505f613876565b505050505050604051602081018181106001600160401b03821117610f45576040525f815290565b84158015613a2e575b613a19575b613a14906132b6565b61384e565b91613a26613a14916132b6565b929050613a0b565b50613a3d60026105b08361315c565b805160208092012090613a51368888612dab565b805191012014613a06565b81601f820112156102f1578051613a7281612d90565b92613a806040519485612d6f565b818452602082840101116102f157612e1c9160208085019101612e1f565b9060209081838203126102f15782516001600160401b03938482116102f157019080601f830112156102f1578151613ad58161379a565b946040613ae481519788612d6f565b828752858088019360051b860101948486116102f157868101935b868510613b1157505050505050505090565b84518481116102f1578201906101009081601f19848a0301126102f1578451613b3981612d53565b8a8401518781116102f157898c613b5292870101613a5c565b8152858401518781116102f157898c613b6d92870101613a5c565b8b820152606092838501518881116102f1578a8d613b8d92880101613a5c565b828801526080858101519483019490945260a08086015190946001600160a01b03821682036102f15783015260c093848601519083015260e090818601519586151587036102f1578d968796850152015190820152815201940193613aff56feb51b16cb4103a8ce441e52afe5cfabab49df83ba6b570adcde7724f975bdf7d02b4eb1aa816aa5f68d796a418d90e0877c28a8ebc9c2332f1f96b308f7744738a26469706673582212205d34559714bf0f79d88bc55a255cbaeba24c49bd2949eee9b68247c2374afaca64736f6c63430008140033",
  "immutableReferences": {},
  "source": "// SPDX-License-Identifier: MIT\npragma solidity ^0.8.20;\n\nimport \"@openzeppelin/contracts/access/Ownable.sol\";\nimport \"@openzeppelin/contracts/utils/Strings.sol\";\n\ncontract DShareStorage is Ownable {\n    using Strings for uint256;\n\n    /*\n        CONSTANTS / CONFIG  \n    */\n    uint256 public constant MAX_STORAGE_1GB_BYTES      = 1 * 1024 * 1024 * 1024; // 1 GB\n    uint256 public constant MAX_STORAGE_5GB_BYTES      = 5 * 1024 * 1024 * 1024; // 5 GB\n    uint256 public constant UPGRADE_TO_5GB_PRICE       = 0.1 ether;\n\n    uint256 public constant SHARE_FEE                  = 10_000_000_000_000;     // 0.00001 ETH\n    uint256 public constant MIN_DOWNLOAD_PRICE         = 10_000_000_000_000;     // 0.00001 ETH\n    uint256 public constant MAX_DOWNLOAD_PRICE         = 0.01 ether;\n    uint256 public constant OWNER_DOWNLOAD_FEE_PERCENT = 20;                   // 20 %\n\n    uint256 public constant UPLOAD_POINTS  = 3;\n    uint256 public constant SHARE_POINTS   = 10;\n    uint256 public constant DOWNLOAD_POINTS= 20;\n    uint256 public constant REFERRAL_POINTS= 1000;\n\n    uint256 public constant MAX_SINGLE_UPLOAD_1GB_BYTES= 300 * 1024 * 1024;      // 300 MB\n    uint256 public constant MAX_SINGLE_UPLOAD_5GB_BYTES= 600 * 1024 * 1024;      // 600 MB\n    uint256 public constant MAX_SINGLE_SHARE_1GB_BYTES = 300 * 1024 * 1024;      // 300 MB\n    uint256 public constant MAX_SINGLE_SHARE_5GB_BYTES = 600 * 1024 * 1024;      // 600 MB\n    uint256 public constant MAX_SHARE_POINTS_THRESHOLD = 200 * 1024 * 1024;      // <= 200 MB => 10 pts\n\n    /* REFERRAL WINDOW */\n    uint256 public constant REFERRAL_WINDOW = 48 hours;  // claim window after registration\n\n    /*\n        DATA STRUCTURE  \n    */\n    struct File {\n        string  name;\n        string  ipfsHash;\n        string  fileType;\n        uint256 size;\n        address uploader;\n        uint256 uploadTime;\n        bool    isPublic;\n        uint256 downloadPrice;\n    }\n\n    /*\n        STATE MAPS  \n    */\n    mapping(address => File[])  public userFiles;\n    mapping(string  => File)    public filesByHash;\n    mapping(address => uint256) public userStorageUsed;\n    mapping(address => uint256) public userStorageLimit;\n    mapping(address => uint256) public userPoints;\n    mapping(address => uint256) public userBalances;\n\n    // Global public file registry\n    File[] public _publicFiles;\n    mapping(string => uint256) _publicIdx; // ipfsHash => index in _publicFiles array\n\n    /* Profile & referral additions */\n    mapping(address => string)  public profileCID;         // NEW\n    mapping(address => uint256) public registeredAt;       // NEW  timestamp\n    mapping(address => bool)    public referralRedeemed;   // NEW  one-time flag\n\n    mapping(address => string)  public userReferralCode;\n    mapping(string  => address) public referralCodeToUser;\n    mapping(address => uint256) public userReferralCount;\n    mapping(address => bool)    public isRegistered;\n\n    uint256 private _referralCodeSalt = 0;\n\n    /* EVENTS */\n    event Deposited       (address indexed user, uint256 amount);\n    event Withdrawn       (address indexed user, uint256 amount);\n    event StorageLimitUpgraded(address indexed user, uint256 newLimit, uint256 pricePaid);\n\n    event FileUploaded    (address indexed uploader, string indexed ipfsHash, string name, uint256 size, uint256 pointsEarned);\n    event FileShared      (address indexed sender, address indexed receiver, string indexed ipfsHash, uint256 feePaid, uint256 pointsEarned);\n    event FileVisibilityChanged(string indexed ipfsHash, bool isPublic, uint256 newPrice);\n    event FilePurchased   (string indexed ipfsHash, address indexed purchaser, address indexed uploader, uint256 amountPaid, uint256 pointsEarned);\n    event FileDeleted     (address indexed deleter, string indexed ipfsHash, uint256 sizeFreed);\n    event PublicFileAdded (string indexed ipfsHash);\n    event PublicFileRemoved(string indexed ipfsHash);\n\n\n    event PointsEarned    (address indexed user, uint256 points, string reason);\n    event FeeCollected    (address indexed collector, uint256 amount, string feeType);\n\n    /* Referral-related events */\n    event UserRegistered      (address indexed newUser, string profileCID);\n    event ReferralCodeGenerated(address indexed user, string code);\n    event ReferralCountUpdated(address indexed referrer, uint256 newCount);\n    event PointsLeaderboardUpdate(address indexed user, uint256 totalPoints);\n\n    /* CONSTRUCTOR */\n    constructor() Ownable(msg.sender) {}\n\n    /* FALLBACKS */\n    receive() external payable {\n        _deposit();\n    }\n    fallback() external payable {\n        _deposit();\n    }\n    function _deposit() internal {\n        require(isRegistered[msg.sender], \"Register first\");\n        userBalances[msg.sender] += msg.value;\n        emit Deposited(msg.sender, msg.value);\n    }\n\n    /* MODIFIERS */\n    modifier validHash(string memory cid) {\n        require(bytes(cid).length > 0, \"Empty hash\");\n        _;\n    }\n    modifier onlyUploader(string memory cid) {\n        require(filesByHash[cid].uploader == msg.sender, \"Not uploader\");\n        _;\n    }\n\n    /*========================================================\n              \n        \n          \n            \n                \n                     \n    ========================================================*/\n\n    /* 1.  USER REGISTRATION */\n    function registerUser(string calldata _profileCID) external {\n        require(!isRegistered[msg.sender], \"Already registered\");\n        isRegistered[msg.sender]    = true;\n        profileCID[msg.sender]      = _profileCID;\n        registeredAt[msg.sender]    = block.timestamp;\n        userStorageLimit[msg.sender]= MAX_STORAGE_1GB_BYTES;\n\n        emit UserRegistered(msg.sender, _profileCID);\n    }\n\n    /* 2.  REDEEM REFERRAL (48 h) */\n    function redeemReferral(string calldata _code) external {\n        require(isRegistered[msg.sender], \"Register first\");\n        require(!referralRedeemed[msg.sender], \"Referral already used\");\n        require(block.timestamp <= registeredAt[msg.sender] + REFERRAL_WINDOW, \"Window closed\");\n\n        address referrer = referralCodeToUser[_code];\n        require(referrer != address(0), \"Invalid code\");\n        require(referrer != msg.sender, \"Self-referral not allowed\");\n\n        referralRedeemed[msg.sender] = true;\n\n        userPoints[msg.sender] += REFERRAL_POINTS;\n        emit PointsEarned(msg.sender, REFERRAL_POINTS, \"Referral (Referred)\");\n        emit PointsLeaderboardUpdate(msg.sender, userPoints[msg.sender]);\n\n        userPoints[referrer] += REFERRAL_POINTS;\n        emit PointsEarned(referrer, REFERRAL_POINTS, \"Referral (Referrer)\");\n        emit PointsLeaderboardUpdate(referrer, userPoints[referrer]);\n\n        userReferralCount[referrer] += 1;\n        emit ReferralCountUpdated(referrer, userReferralCount[referrer]);\n    }\n\n    /* 3.  GENERATE REFERRAL CODE */\n    function generateReferralCode() external returns (string memory) {\n        require(isRegistered[msg.sender], \"Register first\");\n        require(bytes(userReferralCode[msg.sender]).length == 0, \"Already have code\");\n\n        string memory code;\n        for (uint8 i; i < 10; i++) {                        // up to 10 attempts\n            uint256 seed = uint256(\n                keccak256(\n                    abi.encodePacked(\n                        block.timestamp,\n                        msg.sender,\n                        block.prevrandao,\n                        block.number,\n                        _referralCodeSalt++\n                    )\n                )\n            );\n            uint256 num = seed % 10_000_000;                // 7-digit code\n            code = num.toString();\n            while (bytes(code).length < 7) code = string(abi.encodePacked(\"0\", code));\n            if (referralCodeToUser[code] == address(0)) break;\n            if (i == 9) revert(\"Could not generate unique code\");\n        }\n\n        userReferralCode[msg.sender] = code;\n        referralCodeToUser[code]     = msg.sender;\n        emit ReferralCodeGenerated(msg.sender, code);\n        return code;\n    }\n\n    /* 4.  DEPOSIT / WITHDRAW ETH */\n    function deposit() external payable { _deposit(); }\n\n    function withdraw(uint256 amount) external {\n        require(isRegistered[msg.sender], \"Register first\");\n        require(amount > 0 && userBalances[msg.sender] >= amount, \"Insufficient\");\n        userBalances[msg.sender] -= amount;\n        payable(msg.sender).transfer(amount);\n        emit Withdrawn(msg.sender, amount);\n    }\n\n    function getUserBalance() external view returns (uint256) {\n        return userBalances[msg.sender];\n    }\n\n    /* 5.  UPGRADE TO 5 GB */\n    function upgradeStorage() external {\n        require(isRegistered[msg.sender], \"Register first\");\n        require(userStorageLimit[msg.sender] == MAX_STORAGE_1GB_BYTES, \"Already 5 GB\");\n        require(userBalances[msg.sender] >= UPGRADE_TO_5GB_PRICE, \"Balance too low\");\n\n        userBalances[msg.sender] -= UPGRADE_TO_5GB_PRICE;\n        userStorageLimit[msg.sender] = MAX_STORAGE_5GB_BYTES;\n        emit StorageLimitUpgraded(msg.sender, MAX_STORAGE_5GB_BYTES, UPGRADE_TO_5GB_PRICE);\n    }\n\n    /* 6.  FILE UPLOAD */\n    function uploadFile(\n        string calldata name,\n        string calldata cid,\n        string calldata fileType,\n        uint256 size\n    ) external validHash(cid) {\n        require(isRegistered[msg.sender], \"Register first\");\n        require(filesByHash[cid].uploader == address(0), \"CID exists\");\n\n        uint256 limit = userStorageLimit[msg.sender];\n        require(userStorageUsed[msg.sender] + size <= limit, \"Quota exceeded\");\n\n        if (limit == MAX_STORAGE_1GB_BYTES)\n            require(size <= MAX_SINGLE_UPLOAD_1GB_BYTES, \"> 300 MB on 1 GB plan\");\n        else\n            require(size <= MAX_SINGLE_UPLOAD_5GB_BYTES, \"> 600 MB on 5 GB plan\");\n\n        filesByHash[cid] = File({\n            name: name,\n            ipfsHash: cid,\n            fileType: fileType,\n            size: size,\n            uploader: msg.sender,\n            uploadTime: block.timestamp,\n            isPublic: false,\n            downloadPrice: 0\n        });\n        userFiles[msg.sender].push(filesByHash[cid]);\n        userStorageUsed[msg.sender] += size;\n\n        userPoints[msg.sender] += UPLOAD_POINTS;\n        emit PointsLeaderboardUpdate(msg.sender, userPoints[msg.sender]);\n        emit FileUploaded(msg.sender, cid, name, size, UPLOAD_POINTS);\n        emit PointsEarned(msg.sender, UPLOAD_POINTS, \"File Upload\");\n    }\n\n    /* 7.  SHARE FILE */\n    function shareFile(string calldata cid, address receiver)\n        external\n        validHash(cid)\n        onlyUploader(cid)\n    {\n        require(isRegistered[msg.sender], \"Register first\");\n        require(isRegistered[receiver], \"Receiver not registered\");\n        require(receiver != msg.sender && receiver != address(0), \"Bad receiver\");\n        require(userBalances[msg.sender] >= SHARE_FEE, \"Balance too low\");\n\n        File storage f = filesByHash[cid];\n\n        uint256 planLimit = userStorageLimit[msg.sender];\n        require(\n            f.size <= (\n                planLimit == MAX_STORAGE_1GB_BYTES ? MAX_SINGLE_SHARE_1GB_BYTES : MAX_SINGLE_SHARE_5GB_BYTES\n            ),\n            \"Share size limit\"\n        );\n\n        userBalances[msg.sender] -= SHARE_FEE;\n        userBalances[owner()]    += SHARE_FEE;\n        emit FeeCollected(owner(), SHARE_FEE, \"Share Fee\");\n\n        require(userStorageUsed[receiver] + f.size <= userStorageLimit[receiver], \"Receiver quota exceeded\");\n\n        bool exists;\n        for (uint i; i < userFiles[receiver].length; i++)\n            if (keccak256(bytes(userFiles[receiver][i].ipfsHash)) == keccak256(bytes(cid))) { exists = true; break; }\n        if (!exists) {\n            userFiles[receiver].push(f);\n            userStorageUsed[receiver] += f.size;\n        }\n\n        uint256 pts = f.size <= MAX_SHARE_POINTS_THRESHOLD ? SHARE_POINTS : 0;\n        if (pts > 0) {\n            userPoints[msg.sender] += pts;\n            emit PointsLeaderboardUpdate(msg.sender, userPoints[msg.sender]);\n        }\n\n        emit FileShared(msg.sender, receiver, cid, SHARE_FEE, pts);\n        if (pts > 0) emit PointsEarned(msg.sender, pts, \"File Share\");\n    }\n\n    /* 8.  SET VISIBILITY / PRICE */\n    function setFileVisibilityAndPrice(string calldata cid, bool pub, uint256 price)\n        external\n        validHash(cid)\n        onlyUploader(cid)\n    {\n        require(price >= MIN_DOWNLOAD_PRICE && price <= MAX_DOWNLOAD_PRICE, \"Price out of range\");\n        File storage f = filesByHash[cid];\n        \n        bool wasPublic = f.isPublic;\n        \n        f.isPublic      = pub;\n        f.downloadPrice = price;\n\n        if (pub && !wasPublic) {\n            _addPublicFile(cid);\n        } else if (!pub && wasPublic) {\n            _removePublicFile(cid);\n        }\n        \n        emit FileVisibilityChanged(cid, pub, price);\n    }\n\n    /* 9.  PURCHASE FILE */\n    function purchaseFile(string calldata cid) external validHash(cid) {\n        require(isRegistered[msg.sender], \"Register first\");\n        File storage f = filesByHash[cid];\n        require(f.uploader != address(0) && f.isPublic, \"Unavailable\");\n        require(msg.sender != f.uploader, \"Cannot buy own file\");\n        require(isRegistered[f.uploader], \"Uploader not registered\");\n\n        uint256 cost = f.downloadPrice;\n        require(userBalances[msg.sender] >= cost, \"Balance too low\");\n\n        uint256 ownerCut    = (cost * OWNER_DOWNLOAD_FEE_PERCENT) / 100;\n        uint256 uploaderCut = cost - ownerCut;\n\n        userBalances[msg.sender] -= cost;\n        userBalances[owner()]    += ownerCut;\n        userBalances[f.uploader] += uploaderCut;\n        emit FeeCollected(owner(), ownerCut, \"Download Fee\");\n\n        require(userStorageUsed[msg.sender] + f.size <= userStorageLimit[msg.sender], \"Quota exceeded\");\n        bool exists;\n        for (uint i; i < userFiles[msg.sender].length; i++)\n            if (keccak256(bytes(userFiles[msg.sender][i].ipfsHash)) == keccak256(bytes(cid))) { exists = true; break; }\n        if (!exists) {\n            userFiles[msg.sender].push(f);\n            userStorageUsed[msg.sender] += f.size;\n        }\n\n        userPoints[msg.sender] += DOWNLOAD_POINTS;\n        emit PointsLeaderboardUpdate(msg.sender, userPoints[msg.sender]);\n\n        emit FilePurchased(cid, msg.sender, f.uploader, cost, DOWNLOAD_POINTS);\n        emit PointsEarned(msg.sender, DOWNLOAD_POINTS, \"File Download\");\n    }\n\n    /* 10. DELETE FILE */\n    function deleteFile(string calldata cid)\n        external\n        validHash(cid)\n        onlyUploader(cid)\n    {\n        File storage f = filesByHash[cid];\n        uint256 sz = f.size;\n        bool wasPublic = f.isPublic;\n\n        // If the file was public, remove it from the public registry\n        if (wasPublic) {\n            _removePublicFile(cid);\n        }\n\n        delete filesByHash[cid];\n\n        for (uint i; i < userFiles[msg.sender].length; i++) {\n            if (keccak256(bytes(userFiles[msg.sender][i].ipfsHash)) == keccak256(bytes(cid))) {\n                if (i < userFiles[msg.sender].length - 1)\n                    userFiles[msg.sender][i] = userFiles[msg.sender][userFiles[msg.sender].length - 1];\n                userFiles[msg.sender].pop();\n                break;\n            }\n        }\n\n        userStorageUsed[msg.sender] -= sz;\n        emit FileDeleted(msg.sender, cid, sz);\n    }\n\n    /* HELPER FUNCTIONS FOR PUBLIC REGISTRY */\n    function _addPublicFile(string memory cid) internal {\n        // A more robust check for existence in _publicFiles\n        // Check if the _publicIdx mapping has an entry for this CID AND if the file at that index truly matches the CID.\n        bool foundInPublic = false;\n        uint256 existingIdx = _publicIdx[cid];\n        if (existingIdx > 0 || (_publicFiles.length > 0 && keccak256(bytes(_publicFiles[0].ipfsHash)) == keccak256(bytes(cid)))) {\n            // If existingIdx is 0, we explicitly check index 0. If existingIdx is > 0, we check that index.\n            // This handles the edge case where _publicIdx[cid] returns 0 for a non-existent entry, but 0 is also a valid index.\n            if (existingIdx < _publicFiles.length && keccak256(bytes(_publicFiles[existingIdx].ipfsHash)) == keccak256(bytes(cid))) {\n                 foundInPublic = true;\n            }\n        }\n\n        if (!foundInPublic) {\n            _publicFiles.push(filesByHash[cid]);\n            _publicIdx[cid] = _publicFiles.length - 1;\n            emit PublicFileAdded(cid);\n        }\n    }\n\n\n    function _removePublicFile(string memory cid) internal {\n        uint256 index = _publicIdx[cid];\n        // Ensure the file is indeed in the public registry at the given index\n        // and the index is valid.\n        if (index < _publicFiles.length && keccak256(bytes(_publicFiles[index].ipfsHash)) == keccak256(bytes(cid))) {\n            // Move the last element into the place of the one to delete\n            if (index != _publicFiles.length - 1) {\n                File storage lastFile = _publicFiles[_publicFiles.length - 1];\n                _publicFiles[index] = lastFile;\n                _publicIdx[lastFile.ipfsHash] = index;\n            }\n            // Remove the last element\n            _publicFiles.pop();\n            delete _publicIdx[cid];\n            emit PublicFileRemoved(cid);\n        }\n    }\n\n    /* VIEW HELPERS */\n    function getMyFiles() external view returns (File[] memory) { return userFiles[msg.sender]; }\n\n    function getFileByHash(string calldata cid)\n        external\n        view\n        validHash(cid)\n        returns (string memory, string memory, uint256, address, uint256, bool, uint256)\n    {\n        File storage f = filesByHash[cid];\n        require(f.uploader != address(0), \"Not found\");\n        return (f.name, f.fileType, f.size, f.uploader, f.uploadTime, f.isPublic, f.downloadPrice);\n    }\n\n    function getUserStorageInfo(address u) external view returns (uint256 used, uint256 limit) {\n        return (userStorageUsed[u], userStorageLimit[u]);\n    }\n\n    function getMyPoints() external view returns (uint256) { return userPoints[msg.sender]; }\n\n    // New view helper: Returns all public files (with pagination and filtering)\n    function getAllPublicFiles(uint256 offset, uint256 limit, string calldata fileTypeFilter)\n        external\n        view\n        returns (File[] memory)\n    {\n        // Calculate the total number of files matching the filter\n        uint256 totalFilteredCount = 0;\n        for (uint256 i = 0; i < _publicFiles.length; i++) {\n            if (bytes(fileTypeFilter).length == 0 || keccak256(bytes(_publicFiles[i].fileType)) == keccak256(bytes(fileTypeFilter))) {\n                totalFilteredCount++;\n            }\n        }\n\n        // Determine the actual number of files to return based on offset and limit\n        uint256 startIndex = offset;\n        if (startIndex >= totalFilteredCount) {\n            return new File[](0); // No files to return\n        }\n\n        uint256 endIndex = startIndex + limit;\n        if (endIndex > totalFilteredCount) {\n            endIndex = totalFilteredCount;\n        }\n\n        uint256 numFilesToReturn = endIndex - startIndex;\n        File[] memory publicFiles = new File[](numFilesToReturn);\n        uint256 publicFilesIndex = 0;\n        uint256 currentFilteredCount = 0;\n\n        for (uint256 i = 0; i < _publicFiles.length; i++) {\n            if (bytes(fileTypeFilter).length == 0 || keccak256(bytes(_publicFiles[i].fileType)) == keccak256(bytes(fileTypeFilter))) {\n                if (currentFilteredCount >= startIndex && publicFilesIndex < numFilesToReturn) {\n                    publicFiles[publicFilesIndex] = _publicFiles[i];\n                    publicFilesIndex++;\n                }\n                currentFilteredCount++;\n            }\n            if (publicFilesIndex == numFilesToReturn) {\n                break; // We have collected enough files\n            }\n        }\n        return publicFiles;\n    }\n\n\n    // New view helper: Returns both your personal list and the global public list\n    // This function is now placed AFTER getMyFiles and getAllPublicFiles\n    function getMyFilesAndPublic(uint256 offset, uint256 limit, string calldata fileTypeFilter)\n        external\n        view\n        returns (File[] memory myFiles, File[] memory publicFiles)\n    {\n        // Explicitly call the external functions on 'this' contract instance\n        myFiles = this.getMyFiles();\n        publicFiles = this.getAllPublicFiles(offset, limit, fileTypeFilter);\n    }\n\n    /* OWNER WITHDRAW FEES */\n    function withdrawContractFees(uint256 amount) external onlyOwner {\n        require(amount > 0 && address(this).balance >= amount, \"Invalid amount\");\n        payable(owner()).transfer(amount);\n    }\n}\n",
  "sourcePath": "/workspaces/Dshare/Dshare/contracts/DShareStorage.sol",
  "compiler": {
    "name": "solc",
    "version": "0.8.20+commit.a1b79de6.Emscripten.clang"
  },
  "schemaVersion": "3.4.16",
  "updatedAt": "2025-06-30T10:03:25.463Z",
  "networkType": "ethereum",
  "devdoc": {
    "errors": {
      "OwnableInvalidOwner(address)": [
        {
          "details": "The owner is not a valid owner account. (eg. `address(0)`)"
        }
      ],
      "OwnableUnauthorizedAccount(address)": [
        {
          "details": "The caller account is not authorized to perform an operation."
        }
      ]
    },
    "kind": "dev",
    "methods": {
      "owner()": {
        "details": "Returns the address of the current owner."
      },
      "renounceOwnership()": {
        "details": "Leaves the contract without owner. It will not be possible to call `onlyOwner` functions. Can only be called by the current owner. NOTE: Renouncing ownership will leave the contract without an owner, thereby disabling any functionality that is only available to the owner."
      },
      "transferOwnership(address)": {
        "details": "Transfers ownership of the contract to a new account (`newOwner`). Can only be called by the current owner."
      }
    },
    "version": 1
  },
  "userdoc": {
    "kind": "user",
    "methods": {},
    "version": 1
  }
}